S00D000072617370692E73726563F8
S113000019C033C032C031C030C02FC02EC002C6A8
S11300102CC02BC02BC029C028C08FC319C325C036
S113002024C023C0CCC121C052C11FC01EC01DC0EA
S11300301CC01BC011241FBECFEFD4E0DEBFCDBF58
S113004011E0A0E0B1E0E8EDF1E102C005900D920D
S1130050AA3BB107D9F724E0AAEBB1E001C01D9295
S1130060A73DB207E1F744D6B5C8CACF1F920F9295
S11300700FB60F9211242F938F939F93EF93FF93B7
S11300808091CA01811120C081E08093CB01E1E815
S1130090F0E0908180E489278083809186009091AC
S11300A087001092850010928400009769F02091D7
S11300B0D101E22FF0E0EE0FFF1FEB52FD4F9183D1
S11300C080832F5F2093D101FF91EF919F918F91B6
S11300D02F910F900FBE0F901F9018959091CB0108
S11300E02091CA01922B09F04BC092E094BD95BDBA
S11300F096E497BD219A2998882381F18091CB01B8
S113010081113EC0E4E6F0E08081886080838081D4
S1130110877F8083E2E8F0E08081806880831092AA
S11301206F00E0E8F0E01082A1E8B0E01C9282E009
S1130130808389E18C938AE190E090938700809397
S113014086008AE18093880080818068808387EAC2
S113015091E60197F1F700C0000008958091CA016B
S113016081110EC01092800082E88093810081E2A8
S113017080936F00E2E8F0E08081806880832098BB
S11301800895FB01443068F05BEA459F512D11242A
S11301905695952F990F950F491B8170511106C0E3
S11301A016C0411123C0208131811DC090E0682F09
S11301B06660A081B181AB59BC4F6C9320813181C1
S11301C02F5F3F4F318320839F5F9513F2CF2081B0
S11301D03181440F842BD901AB59BC4F8C932F5FD1
S11301E03F4F31832083822F932F08958170EFCF67
S11301F0CF93DF93EB01882341F041E081E0C1DF3D
S113020043E0BE0180E0BDDF07C041E081E0B9DF2B
S113021041E0BE0180E0B5DF88819981DF91CF9113
S11302200895CF93DF939C01EB01BC01769567950C
S1130230CB01A0E0B0E0BC01CD016C5D7B408F4FF1
S11302409F4F40E050E0F6D5215031093093C5006E
S11302502093C40088ED8093C100C530D10531F0EE
S1130260289731F486E08093C20002C01092C20045
S1130270DF91CF9108959091C8018091C901981799
S113028048F4E92FF0E0EB52FC4F80819F5F90939C
S1130290C801089580E008959091C60181E02091FD
S11302A0C701291380E008958091C6019091C70188
S11302B0981761F08091C601E82FF0E0EB52FE4FF1
S11302C090819093C6008F5F8093C60108951F921A
S11302D00F920FB60F9211242F933F934F935F9376
S11302E06F937F938F939F93AF93BF93EF93FF93FA
S11302F0DBDFFF91EF91BF91AF919F918F917F9140
S11303006F915F914F913F912F910F900FBE0F907E
S11303101F9018959091C701692F70E0AB014F5F52
S11303205F4F55272091C60130E042175307D1F3A0
S1130330FB01EB52FE4F80839F5F9093C701809136
S1130340C00085FDB1DF0895CF93DF93EC01888170
S1130350882331F0219690E0DDDF89918111FBCF74
S1130360DF91CF91089583E091E0EEDF0895FBDF04
S11303701092C5010895E8DFF6DF08959093D40143
S11303808093D3012091C301222321F081E0809343
S1130390C401089525E031E0FC012083089581E043
S11303A08093C3010895DFDFFADF81E08093C50104
S11303B00895843219F481E08093BC0108951F925A
S11303C00F920FB60F9211241F932F933F934F93C5
S11303D05F936F937F938F939F93AF93BF93EF93A9
S11303E0FF93CF93DF93CDB7DEB7C154D109DEBFFE
S11303F0CDBF8091C60089838981DBDF8091C501EF
S11304008823A1F18981883041F48091C901E82FC2
S1130410F0E081508093C90107C08091C901E82FA1
S1130420F0E08F5F8093C9018981EB52FC4F808398
S1130430898190E06FDF89818D30C1F410E01BDF8A
S1130440882349F0E2E0F0E0EC0FFD1FE10FF11D1D
S113045080831F5FF4CF1150E2E0F0E0EC0FFD1F4A
S1130460E10FF11D1082CE01029688DFCF5BDF4FD2
S11304700FB6F894DEBF0FBECDBFDF91CF91FF91D1
S1130480EF91BF91AF919F918F917F916F915F9108
S11304904F913F912F911F910F900FBE0F901F907E
S11304A01895811101C08FEF90E00DC0E7EAF1E6E5
S11304B03197F1F700C000009F5F891720F4109274
S11304C0C30180E008952091C401222379F310929E
S11304D0C40181E00895CF93C62F4DDF64DF8C2FD4
S11304E0E0DFC82F44DF1092C301CC2329F0209110
S11304F0D3013091D40102C021E031E0822F932F47
S1130500CF91089540E0242F30E0FC01E20FF31F67
S11305105081511109C0FB01E20FF31F81E090816A
S1130520992359F080E00895FB01E20FF31F208125
S1130530521302C04F5FE7CF80E0089581E0CEDD23
S11305400895CF92DF92EF92FF920F931F93CF9370
S1130550DF9300D0CDB7DEB77C01D62E1A82198284
S113056040E1BE016F5F7F4F81E00BDE48E0BE01DA
S11305706F5F7F4F80E005DE0FE010E0C701002EC3
S113058002C0959587950A94E2F7BE016F5F7F4F8D
S113059081702EDE0150110988F707E010E0ED2C80
S11305A0F12CC701002E02C0959587950A94E2F7B5
S11305B0BE016F5F7F4F81701BDE0150110988F708
S11305C007E010E0E094F094C701002E02C0959576
S11305D087950A94E2F7BE016F5F7F4F817008DE52
S11305E00150110988F741E0BE016F5F7F4F81E040
S11305F0C8DD41E0BE016F5F7F4F80E0C2DD8981CD
S11306009A818036910564F4FC01EB59FC4F108209
S1130610019680369105C1F780E690E09A8389833C
S11306208DDF81E08093CA01EEE6F0E08081826094
S113063080830F900F90DF91CF911F910F91FF90C6
S1130640EF90DF90CF90089581E08093BB010895EF
S11306501F920F920FB60F9211242F933F934F9333
S11306605F936F937F938F939F93AF93BF93EF9316
S1130670FF93E0E8F0E0808181FFFDCF89E0809383
S11306808800E091CC01F091CD01EB59FC4F8081C1
S113069080FF07C0E0E8F0E08081806880835F9A93
S11306A006C0E0E8F0E080818F7780835F98E09176
S11306B0CC01F091CD01EB59FC4F8081869596E4F5
S11306C0899F802D112487BD8091CC019091CD010B
S11306D001969093CD018093CC01E091CC01F091EF
S11306E0CD01EB59FC4F8081811112C0E0E8F0E0AC
S11306F080818F778083EEE6F0E080818D7F808338
S11307001092CD011092CC0129981092CA019CDF5D
S1130710FF91EF91BF91AF919F918F917F916F91D5
S11307205F914F913F912F910F900FBE0F901F90AB
S1130730189581E08093BA0108951F920F920FB625
S11307400F9211242F933F934F935F936F937F9353
S11307508F939F93AF93BF93EF93FF938091CB01BC
S1130760882309F4A9C11092CB018091D10181346D
S113077008F4A2C11092D1018091D7029091D802BD
S11307808D3494400CF498C18091D7029091D80292
S1130790803B94400CF090C18091D9029091DA0290
S11307A0853F91400CF488C18091D9029091DA027E
S11307B0883592400CF080C18091DB029091DC027C
S11307C0C8970CF479C18091DB029091DC028B34E0
S11307D09105CCF071C1862F90E0FC01EE0FFF1F54
S11307E0EB52FD4F20813181283331050CF464C173
S11307F0FC01EE0FFF1FEB52FD4F808191818B3482
S113080091052CF059C17FE063E041E050E0862F70
S11308108F5F90E0FC01EE0FFF1FEB52FD4F208134
S1130820318128333105F4F0FC01EE0FFF1FEB5248
S1130830FD4F208131812B343105A4F42091CF0167
S11308403091D001CA01072E02C0880F991F0A9463
S1130850E2F780959095822393239093D00180931F
S1130860CF0125C0FC01EE0FFF1FEB52FD4F20818D
S11308703181243C3105DCF0FC01EE0FFF1FEB520B
S1130880FD4F80819181823D91058CF48091CF014F
S11308909091D0019A01072E02C0220F331F0A94AF
S11308A0E2F7822B932B9093D0018093CF016E5F5C
S11308B07150703108F48FCF862F90E0FC01EE0F59
S11308C0FF1FEB52FD4F20813181283331050CF499
S11308D0F3C0FC01EE0FFF1FEB52FD4F80819181AD
S11308E08B349105CCF0E8C0862F90E0FC01EE0F2C
S11308F0FF1FEB52FD4F20813181283331050CF469
S1130900DBC0FC01EE0FFF1FEB52FD4F8081918194
S11309108B34910524F0D0C077E041E050E0862F7D
S11309208F5F90E0FC01EE0FFF1FEB52FD4F208123
S1130930318128333105C4F0FC01EE0FFF1FEB5267
S1130940FD4F208131812B34310574F42091CE0187
S1130950CA01072E02C0880F991F0A94E2F78095F6
S113096082238093CE0120C0FC01EE0FFF1FEB52C7
S1130970FD4F20813181243C3105B4F0FC01EE0FA0
S1130980FF1FEB52FD4F80819181823D910564F4FC
S11309902091CE01CA01072E02C0880F991F0A9424
S11309A0E2F7822B8093CE016E5F7150783008F4A9
S11309B09BCF862F90E0FC01EE0FFF1FEB52FD4F03
S11309C020813181283331050CF476C0FC01EE0F0F
S11309D0FF1FEB52FD4F808191818B349105CCF048
S11309E06BC0862F90E0FC01EE0FFF1FEB52FD4F12
S11309F020813181283331050CF45EC0FC01EE0FF7
S1130A00FF1FEB52FD4F808191818B3491052CF0B7
S1130A1053C077E0A0E041E050E0862F8F5F90E084
S1130A20FC01EE0FFF1FEB52FD4F20813181283373
S1130A303105A4F0FC01EE0FFF1FEB52FD4F2081A6
S1130A4031812B34310554F4CA01072E02C0880FBA
S1130A50991F0A94E2F78095A8231CC0FC01EE0FAD
S1130A60FF1FEB52FD4F20813181243C310594F06E
S1130A70FC01EE0FFF1FEB52FD4F80819181823DFF
S1130A80910544F4CA01072E02C0880F991F0A94E5
S1130A90E2F7A82B6E5F7150783008F4A2CF8091F2
S1130AA0CE01A095A81308C06091CE018091CF011A
S1130AB09091D00170E03DDEFF91EF91BF91AF9135
S1130AC09F918F917F916F915F914F913F912F9162
S1130AD00F900FBE0F901F901895CF93DF936AE08D
S1130AE086E091E0F8DCEC0146DC81E0988191112C
S1130AF001C080E0DF91CF910895EFDF81110CC038
S1130B008EE091E038DC2C9A89EF90E00197F1F7C0
S1130B1000C000002C9803C08AE191E02CDC109204
S1130B20BD010895DADF882321F083E391E023DC1B
S1130B3003C08CE391E01FDC1092BE010895CF92B4
S1130B40DF92EF92FF920F931F93CF93DF93CDB772
S1130B50DEB7C055D1090FB6F894DEBF0FBECDBFC6
S1130B6064E686E591E0B7DC7C0105DC6FE571E0C5
S1130B70C701C8DC8823D9F164E682E691E0ABDCE6
S1130B808C0168E671E0BEDC882339F18CE691E0E3
S1130B90F2DB64E68FE791E09EDCBC01CE01819636
S1130BA084D264E687E991E096DCBC01CE0101962B
S1130BB07CD240E150E0BE016F5B7F4FCE01819655
S1130BC05BD16B017C0140E150E0BE016F5B7F4F64
S1130BD0CE01019651D1C601B4DC66EA71E0C801C8
S1130BE091DC882321F064E987EC91E2AADC88EAAD
S1130BF091E0C1DBC05BDF4F0FB6F894DEBF0FBEE0
S1130C00CDBFDF91CF911F910F91FF90EF90DF90B7
S1130C10CF9008951F920F920FB60F9211242F9325
S1130C203F938F939F93EF93FF9380910001982FAD
S1130C309F5F90930001811150C0EAE7F0E080814A
S1130C4080648083808186FF09C083EC99E00197EA
S1130C50F1F700C00000808186FDF7CF8091C101CB
S1130C609091C201892B41F4809178009091790090
S1130C709093C2018093C101809178009091790092
S1130C809093C0018093BF018091BF019091C001F6
S1130C902091C1013091C201821B930B87399105C8
S1130CA024F081E08093BD0110C08091BF01909138
S1130CB0C0012091C1013091C201821B930B8A367D
S1130CC09F4F1CF481E08093BE0180917800909145
S1130CD079009093C2018093C101FF91EF919F919C
S1130CE08F913F912F910F900FBE0F901F901895E9
S1130CF0CF93DF931F92CDB7DEB78FEF8AB91BB8BE
S1130D009EEF97B918B884B915B892E09093B000E3
S1130D1097E09093B100E0E7F0E010829081926058
S1130D2090838093B30084E880937A0010927C00CF
S1130D3083EC99E00197F1F700C0000080E0CED980
S1130D40E3ECF9E03197F1F700C0000068E070E0EF
S1130D5080EC92E166DA78948DEA91E00CDB83B75B
S1130D60817F83BFE4E6F0E08081806880838081B6
S1130D708460808300E710E08091BD018111BDDEB5
S1130D808091BE018111CEDE8091BB01882311F0D8
S1130D9080E0A4D98091BA018823E9F01092BA01C5
S1130DA087EB91E0D1DA8091CF019091D00140E1BD
S1130DB050E0BE016F5F7F4F7FD1DDDA87EB91E0BA
S1130DC0C3DA8091CE0140E150E0BE016F5F7F4FF6
S1130DD090E072D1D0DA8091BC01882359F0F801F7
S1130DE080818D7F8083ABDE1092BC01F80180810D
S1130DF08260808351DA882309F4BECF83B781608F
S1130E0083BF889583B78E7F83BFB6CFAA1BBB1BD6
S1130E1051E107C0AA1FBB1FA617B70710F0A61BF6
S1130E20B70B881F991F5A95A9F780959095BC0117
S1130E30CD010895A1E21A2EAA1BBB1BFD010DC012
S1130E40AA1FBB1FEE1FFF1FA217B307E407F50776
S1130E5020F0A21BB30BE40BF50B661F771F881F52
S1130E60991F1A9469F760957095809590959B01E8
S1130E70AC01BD01CF010895A0E0B0E0E1E4F7E0EA
S1130E8068C15B01EA016115710519F0FB018083FA
S1130E909183209739F09E01225031092332310584
S1130EA008F0E3C07C01F70191907F018F01892D47
S1130EB090E0F3D0892BB9F7FDE29F1206C0F70149
S1130EC091908F018824839407C0FBE29F1203C092
S1130ED0F70191908F01812C209709F4D4C0C0317F
S1130EE0D10581F4CCC0F8018081883719F08835A8
S1130EF009F0BFC0F80191800E5F1F4FF2E08F2A06
S1130F00C0E1D0E0C830D105D9F024F4C230D10515
S1130F10F9F407C0CA30D10551F0C031D105C1F48C
S1130F2024C0C12CD12CE12C40E4F42E23C0CAE00F
S1130F30D0E03CECC32EDC2CEC2C3CE0F32E1AC0AD
S1130F40C8E0D0E0C12CD12CE12C20E1F22E12C05B
S1130F509E01442737FD4095542F60E070E080E007
S1130F6090E868DF69017A0105C0C12CD12CE12C1D
S1130F7098E0F92E40E060E070E0CB012E01662499
S1130F8057FC6094762CE92DE053EA3060F0292D6B
S1130F9021542A3110F4E75006C0292D21562A3154
S1130FA020F5E92DE7552E2F30E02C173D07ECF402
S1130FB047FD17C0C616D706E806F90678F09B0168
S1130FC0AC01C301B201AAD06E0F711D811D911D28
S1130FD061307105810520E8920710F04FEF01C0E0
S1130FE041E0F80191908F01CECFA114B10481F0BA
S1130FF0442331F001501109F5011183008308C025
S113100081FE1AC002501109F5011183008314C036
S113101047FF12C080FE05C060E070E080E090E809
S113102004C06FEF7FEF8FEF9FE722E230E0309351
S1131030D6042093D50416C080FE08C090958095F0
S1131040709561957F4F8F4F9F4F0CC097FF0AC0DB
S113105082E290E09093D6048093D5046FEF7FEF03
S11310608FEF9FE78B019C0112C000E010E0980114
S11310700EC080E3982E209709F462CF43CFF0E3AB
S11310809F1240CF30CF20E3921251CF2CCFB80122
S1131090C901CDB7DEB7E0E178C091112CC0803230
S11310A019F089508550D0F70895FB01DC010190B7
S11310B00D920020E1F70895FB019F01E89442306E
S11310C0BCF04532ACF44A3029F497FB1EF49095F9
S11310D081959F4F642F772799DE805D8A330CF0CA
S11310E0895D8193CB010097A9F716F45DE25193D2
S11310F01082C90103C0992788270895DC01FC01E7
S1131100672F71917723E1F7329704C07C916D9337
S113111070836291AE17BF07C8F30895DB018F9304
S11311209F930BD0BF91AF91A29F800D911DA39F60
S1131130900DB29F900D1124089540D0A59F900D5D
S1131140B49F900DA49F800D911D112408952F929A
S11311503F924F925F926F927F928F929F92AF9243
S1131160BF92CF92DF92EF92FF920F931F93CF9390
S1131170DF93CDB7DEB7CA1BDB0B0FB6F894DEBF27
S11311800FBECDBF09942A88398848885F846E844D
S11311907D848C849B84AA84B984C884DF80EE8097
S11311A0FD800C811B81AA81B981CE0FD11D0FB6A0
S11311B0F894DEBF0FBECDBFED010895A29FB0012C
S11311C0B39FC001A39F01D0B29F700D811D112454
S10B11D0911D0895F894FFCF6E
S11311D80100000D0A004163746976653F0052619D
S11311E87370692057616B652100526173706920BF
S11311F8697320616C7265616479206163746976CE
S1131208652E0053687574646F776E00526173704D
S11312186920697320616C726561647920696E2044
S113122868616C742E00436F6D6D616E643F006974
S11312387200547970653F006E656300446174619F
S113124820696E204E454320666F726D61740043B9
S11312587573746F6D657220636F64653F284261AE
S113126873653A31362900446174613F28426173D9
S1131278653A313629003000457869740048656C50
S10D12886C6F2041565200307800CC
S9030000FC
