:1000000019C0EFC6F8C631C030C02FC02EC02DC0F9
:100010002CC079C62BC0CBC328C027C053C325C072
:1000200024C023C0EEC15FC181C11FC01EC01DC05E
:100030001CC01BC011241FBECFEFD4E0DEBFCDBF5C
:1000400011E0A0E0B1E0ECEDF3E102C005900D920B
:10005000A437B107D9F724E0A4E7B1E001C01D92AD
:10006000A339B207E1F7FDD6B7C9D4C61F920F92E4
:100070000FB60F9211242F938F939F93EF93FF93BB
:1000800080918601811120C081E080938701E1E8A1
:10009000F0E0908180E489278083809186009091B0
:1000A00087001092850010928400009769F02091DB
:1000B0008D01E22FF0E0EE0FFF1FEF56FD4F918311
:1000C00080832F5F20938D01FF91EF919F918F91FE
:1000D0002F910F900FBE0F901F9018959091870150
:1000E00020918601922B09F051C092E094BD95BDFC
:1000F00096E497BD219A2998882381F18091870100
:10010000811144C0E4E6F0E08081886080838081D2
:10011000877F8083E2E8F0E08081806880831092AE
:100120006F00E0E8F0E01082A1E8B0E01C9282E00D
:10013000808389E18C938AE190E09093870080939B
:1001400086008AE18093880080818068808387EAC6
:1001500091E60197F1F700C00000089580918601B3
:10016000811114C0109280008AE8809381008FEF83
:100170009FE1909389008093880082E280936F00D2
:10018000E2E8F0E080818068808320980895FB0198
:10019000443068F05BEA459F512D11245695952F08
:1001A000990F950F491B8170511106C016C041115E
:1001B00023C0208131811DC090E0682F6660A0813E
:1001C000B181AF5DBC4F6C93208131812F5F3F4F78
:1001D000318320839F5F9513F2CF20813181440FBB
:1001E000842BD901AF5DBC4F8C932F5F3F4F318380
:1001F0002083822F932F08958170EFCFCF93DF93C9
:10020000EB01882341F041E081E0C1DF43E0BE0122
:1002100080E0BDDF07C041E081E0B9DF41E0BE0121
:1002200080E0B5DF88819981DF91CF910895CF93E8
:10023000DF939C01EB01BC0176956795CB01A0E0B3
:10024000B0E0BC01CD016C5D7B408F4F9F4F40E023
:1002500050E0F2D6215031093093C5002093C400FC
:1002600088ED8093C100C530D10531F0289731F475
:1002700086E08093C20002C01092C200DF91CF914D
:1002800008959091840180918501981748F4E92F91
:10029000F0E0EF56FC4F80819F5F909384010895BA
:1002A00080E008959091820181E0209183012913DB
:1002B00080E008958091820190918301981306C097
:1002C000E1ECF0E080818F7D808308958091820150
:1002D000E82FF0E0EF56FE4F90819093C6008F5FBD
:1002E0008093820108951F920F920FB60F921124EE
:1002F0002F933F934F935F936F937F938F939F932E
:10030000AF93BF93EF93FF93D5DFFF91EF91BF9131
:10031000AF919F918F917F916F915F914F913F919D
:100320002F910F900FBE0F901F9018951F920F9254
:100330000FB60F9211240F900FBE0F901F901895BB
:10034000F89490918301692F70E0AB014F5F5F4F8C
:1003500055272091820130E042175307D1F3FB016A
:10036000EF56FE4F8083292F2F5F209383018091CA
:10037000820130E090E001962817390729F4E1EC7A
:10038000F0E080818062808378940895CF93DF933A
:10039000EC018881882331F0219690E0D1DF8991AA
:1003A0008111FBCFDF91CF91089583E091E0EEDFE3
:1003B0000895FBDF109281010895E8DFF6DF0895CC
:1003C0009093900180938F0120917F01222321F04F
:1003D00081E080938001089525E031E0FC012083D5
:1003E000089581E080937F010895DFDFFADF81E0E7
:1003F000809381010895843219F481E0809378011B
:1004000008951F920F920FB60F9211241F932F93EE
:100410003F934F935F936F937F938F939F93AF938C
:10042000BF93EF93FF93CF93DF93CDB7DEB7C15464
:10043000D109DEBFCDBF8091C60089838981DBDF12
:10044000809181018823A1F18981883041F48091D4
:100450008501E82FF0E081508093850107C08091ED
:100460008501E82FF0E08F5F809385018981EF5649
:10047000FC4F8083898190E063DF89818D30C1F4F6
:1004800010E0FFDE882349F0E2E0F0E0EC0FFD1F12
:10049000E10FF11D80831F5FF4CF1150E2E0F0E027
:1004A000EC0FFD1FE10FF11D1082CE01029688DFD7
:1004B000CF5BDF4F0FB6F894DEBF0FBECDBFDF912D
:1004C000CF91FF91EF91BF91AF919F918F917F91CC
:1004D0006F915F914F913F912F911F910F900FBEA0
:1004E0000F901F901895F999FECF92BD81BDF89A93
:1004F00080B50895811101C08FEF90E00DC0E7EA4B
:10050000F1E63197F1F700C000009F5F891720F4F2
:1005100010927F0180E0089520918001222379F3D9
:100520001092800181E00895CF93C62F46DF5DDFF2
:100530008C2FE0DFC82F3DDF10927F01CC2329F004
:1005400020918F013091900102C021E031E0822F93
:10055000932FCF91089540E0242F30E0FC01E20F6B
:10056000F31F5081511109C0FB01E20FF31F81E01D
:100570009081992359F080E00895FB01E20FF31F69
:100580002081521302C04F5FE7CF80E008958BE1D6
:100590008093810082E0809380000895E4E6F0E09B
:1005A00080818F7D808381E099DD0895CF92DF92F5
:1005B000EF92FF920F931F93CF93DF9300D0CDB7AD
:1005C000DEB77C01D62E1A82198240E1BE016F5F30
:1005D0007F4F81E0DCDD48E0BE016F5F7F4F80E050
:1005E000D6DD0FE010E0C701002E02C0959587957B
:1005F0000A94E2F7BE016F5F7F4F8170FFDD01500B
:10060000110988F707E010E0ED2CF12CC701002E4E
:1006100002C0959587950A94E2F7BE016F5F7F4F00
:100620008170ECDD0150110988F707E010E0E094DB
:10063000F094C701002E02C0959587950A94E2F7C1
:10064000BE016F5F7F4F8170D9DD0150110988F7BE
:1006500041E0BE016F5F7F4F81E099DD41E0BE0167
:100660006F5F7F4F80E093DD89819A8180369105AD
:1006700064F4FC01EF5DFC4F108201968036910519
:10068000C1F780E690E09A83898388DF81E08093D8
:100690008601EEE6F0E08081826080830F900F900B
:1006A000DF91CF911F910F91FF90EF90DF90CF904E
:1006B0000895E4E6F0E080818062808381E08093A9
:1006C000770108951F920F920FB60F9211242F9366
:1006D0003F934F935F936F937F938F939F93AF93CA
:1006E000BF93EF93FF93E0E8F0E0808181FFFDCFBF
:1006F00089E080938800E0918801F0918901EF5DA5
:10070000FC4F808180FF07C0E0E8F0E080818068D6
:1007100080835F9A06C0E0E8F0E080818F77808375
:100720005F98E0918801F0918901EF5DFC4F808135
:10073000869596E4899F802D112487BD809188013C
:100740009091890101969093890180938801E091AD
:100750008801F0918901EF5DFC4F8081811112C009
:10076000E0E8F0E080818F778083EEE6F0E0808142
:100770008D7F8083109289011092880129981092B0
:10078000860197DFFF91EF91BF91AF919F918F917C
:100790007F916F915F914F913F912F910F900FBE7D
:1007A0000F901F90189581E08093760108951F9215
:1007B0000F920FB60F9211242F933F934F935F9395
:1007C0006F937F938F939F93AF93BF93EF93FF9319
:1007D00080918701882309F4A9C110928701809133
:1007E0008D01813408F4A2C110928D018091930291
:1007F00090919402893E93400CF498C180919302A9
:10080000909194028A3B94400CF090C180919502A3
:10081000909196028B3E91400CF488C18091950294
:1008200090919602823692400CF080C1809197029E
:1008300090919802C3970CF479C18091970290919E
:10084000980280359105CCF071C1862F90E0FC01B3
:10085000EE0FFF1FEF56FD4F20813181233331050D
:100860000CF464C1FC01EE0FFF1FEF56FD4F8081B9
:100870009181803591052CF059C17FE063E041E022
:1008800050E0862F8F5F90E0FC01EE0FFF1FEF56C8
:10089000FD4F2081318123333105F4F0FC01EE0F4F
:1008A000FF1FEF56FD4F2081318120353105A4F423
:1008B00020918B0130918C01CA01072E02C0880F54
:1008C000991F0A94E2F78095909582239323909341
:1008D0008C0180938B0125C0FC01EE0FFF1FEF56AA
:1008E000FD4F208131812F3B3105DCF0FC01EE0F03
:1008F000FF1FEF56FD4F80819181873D91058CF45C
:1009000080918B0190918C019A01072E02C0220FD9
:10091000331F0A94E2F7822B932B90938C018093E0
:100920008B016E5F7150703108F48FCF862F90E08D
:10093000FC01EE0FFF1FEF56FD4F20813181233365
:1009400031050CF4F3C0FC01EE0FFF1FEF56FD4F15
:100950008081918180359105CCF0E8C0862F90E0B0
:10096000FC01EE0FFF1FEF56FD4F20813181233335
:1009700031050CF4DBC0FC01EE0FFF1FEF56FD4FFD
:10098000808191818035910524F0D0C077E041E0ED
:1009900050E0862F8F5F90E0FC01EE0FFF1FEF56B7
:1009A000FD4F2081318123333105C4F0FC01EE0F6E
:1009B000FF1FEF56FD4F208131812035310574F442
:1009C00020918A01CA01072E02C0880F991F0A943C
:1009D000E2F78095822380938A0120C0FC01EE0F0C
:1009E000FF1FEF56FD4F208131812F3B3105B4F0C1
:1009F000FC01EE0FFF1FEF56FD4F80819181873D77
:100A0000910564F420918A01CA01072E02C0880F63
:100A1000991F0A94E2F7822B80938A016E5F7150CE
:100A2000783008F49BCF862F90E0FC01EE0FFF1F7B
:100A3000EF56FD4F20813181233331050CF476C010
:100A4000FC01EE0FFF1FEF56FD4F80819181803535
:100A50009105CCF06BC0862F90E0FC01EE0FFF1FDC
:100A6000EF56FD4F20813181233331050CF45EC0F8
:100A7000FC01EE0FFF1FEF56FD4F80819181803505
:100A800091052CF053C077E0A0E041E050E0862FC4
:100A90008F5F90E0FC01EE0FFF1FEF56FD4F2081AE
:100AA000318123333105A4F0FC01EE0FFF1FEF5617
:100AB000FD4F208131812035310554F4CA01072EC4
:100AC00002C0880F991F0A94E2F78095A8231CC0E2
:100AD000FC01EE0FFF1FEF56FD4F208131812F3BB0
:100AE000310594F0FC01EE0FFF1FEF56FD4F8081A2
:100AF0009181873D910544F4CA01072E02C0880FF9
:100B0000991F0A94E2F7A82B6E5F7150783008F4B1
:100B1000A2CF80918A01A095A81308C060918A0194
:100B200080918B0190918C0170E03DDEFF91EF91FF
:100B3000BF91AF919F918F917F916F915F914F91F5
:100B40003F912F910F900FBE0F901F9018950F930C
:100B50001F93CF93DF938C01EB018091860181116C
:100B600038C015DD89E09DE3B80152D2709387004B
:100B7000609386007595679570938B0060938A00EB
:100B800083EC99E00197F1F700C00000E0E8F0E0A5
:100B9000808180628083E3ECF9E03197F1F700C057
:100BA0000000F894209769F0BE0180E090E0E9EF42
:100BB000F0E03197F1F700C0000001968617970723
:100BC000B1F77894E0E8F0E080818F7D808380E069
:100BD00085DADF91CF911F910F910895CF93DF9325
:100BE0006AE086E091E0A0DCEC01E7DB81E098813F
:100BF000911101C080E0DF91CF910895EFDF811165
:100C00000BC089E091E0D9DB2C9A89EF90E0019745
:100C1000F1F700C000002C98109279010895DEDFF2
:100C2000882319F08EE091E0C8DB10927A010895D4
:100C3000CF92DF92EF92FF920F931F93CF93DF93A8
:100C4000CDB7DEB7C055D1090FB6F894DEBF0FBEE1
:100C5000CDBF64E683E191E067DC7C01AEDB6CE153
:100C600071E0C70178DC8823D9F164E68FE191E077
:100C70005BDC8C0165E271E06EDC882339F189E28E
:100C800091E09BDB64E68CE391E04EDCBC01CE019D
:100C900081960DD364E684E591E046DCBC01CE018B
:100CA000019605D340E150E0BE016F5B7F4FCE015E
:100CB0008196E4D16B017C0140E150E0BE016F5BA5
:100CC0007F4FCE010196DAD1C60170DC63E671E098
:100CD000C80141DC882321F064E987EC91E266DCFD
:100CE00085E691E06ADBC05BDF4F0FB6F894DEBFAC
:100CF0000FBECDBFDF91CF911F910F91FF90EF906D
:100D0000DF90CF9008951F920F920FB60F9211248B
:100D10002F933F938F939F93EF93FF9380910001C5
:100D2000982F9F5F90930001811150C0EAE7F0E097
:100D3000808180648083808186FF09C083EC99E094
:100D40000197F1F700C00000808186FDF7CF809108
:100D50007D0190917E01892B41F4809178009091E2
:100D6000790090937E0180937D018091780090912D
:100D7000790090937C0180937B0180917B0190911D
:100D80007C0120917D0130917E01821B930B8B3A77
:100D9000910524F081E08093790110C080917B015E
:100DA00090917C0120917D0130917E01821B930BFB
:100DB00086359F4F1CF481E080937A018091780002
:100DC0009091790090937E0180937D01FF91EF9146
:100DD0009F918F913F912F910F900FBE0F901F9079
:100DE00018951F920F920FB60F9211240F900FBEFD
:100DF0000F901F9018951F920F920FB60F9211240B
:100E00008F9381E0809378018F910F900FBE0F90A8
:100E10001F9018951F920F920FB60F9211242F93C7
:100E20003F934F935F936F937F938F939F93AF9372
:100E3000BF93EF93FF9368EC70E088EB91E087DE5F
:100E4000FF91EF91BF91AF919F918F917F916F91A2
:100E50005F914F913F912F910F900FBE0F901F9078
:100E60001895CF93DF931F92CDB7DEB78FEF8AB976
:100E70001BB89EEF97B918B884B915B81092B00096
:100E800087E08093B100E0E7F0E01082808181602C
:100E9000808384E880937A0010927C0083EC99E050
:100EA0000197F1F700C0000080E018D9E3ECF9E009
:100EB0003197F1F700C0000068E070E080EC92E14B
:100EC000B6D98EE08093690083E08DBB5298539829
:100ED00081E090E008DB182F82E090E004DB382FFF
:100EE00020E0212B309375012093740183E090E082
:100EF000FADA80938A0178948AE691E05EDA83B721
:100F0000817F866083BFE4E6F0E080818068808333
:100F100080818460808380818062808300EC10E027
:100F20000F2EF0E7EF2EF12CF02D0F2EF3E0DF2E39
:100F3000F02DB8D98823E9F3F801808185FFFCCF33
:100F4000809187018111FCCF89EF90E00197F1F743
:100F500000C0000080917901811150DE80917A01FA
:100F600081115DDE80917701882311F080E0B6D891
:100F700080917601882301F1109276018EE691E04E
:100F80001CDA81E791E002DA80918B0190918C016B
:100F900040E150E0BE016F5F7F4F90D10EDA81E7F4
:100FA00091E0F4D980918A0140E150E0BE016F5F89
:100FB0007F4F90E083D101DA80917801882369F036
:100FC000F70180818D7F80831DBA32DE1092780117
:100FD000F701808182608083DDBA64D98823E9F3D8
:100FE000F801808185FFFCCF809187018111FCCFC2
:100FF00089EF90E00197F1F700C000005F9883B798
:10100000816083BF889583B78E7F83BF5F9A91CFBE
:10101000AA1BBB1B51E107C0AA1FBB1FA617B7071E
:1010200010F0A61BB70B881F991F5A95A9F780953A
:101030009095BC01CD010895A1E21A2EAA1BBB1BFD
:10104000FD010DC0AA1FBB1FEE1FFF1FA217B30794
:10105000E407F50720F0A21BB30BE40BF50B661FAA
:10106000771F881F991F1A9469F76095709580956E
:1010700090959B01AC01BD01CF010895A0E0B0E0C7
:10108000E3E4F8E068C15B01EA016115710519F05C
:10109000FB0180839183209739F09E012250310912
:1010A0002332310508F0E3C07C01F70191907F0104
:1010B0008F01892D90E0F3D0892BB9F7FDE29F12C3
:1010C00006C0F70191908F018824839407C0FBE24A
:1010D0009F1203C0F70191908F01812C209709F492
:1010E000D4C0C031D10581F4CCC0F80180818837EB
:1010F00019F0883509F0BFC0F80191800E5F1F4FCD
:10110000F2E08F2AC0E1D0E0C830D105D9F024F454
:10111000C230D105F9F407C0CA30D10551F0C03151
:10112000D105C1F424C0C12CD12CE12C40E4F42E13
:1011300023C0CAE0D0E03CECC32EDC2CEC2C3CE01D
:10114000F32E1AC0C8E0D0E0C12CD12CE12C20E154
:10115000F22E12C09E01442737FD4095542F60E0C7
:1011600070E080E090E868DF69017A0105C0C12C79
:10117000D12CE12C98E0F92E40E060E070E0CB014A
:101180002E01662457FC6094762CE92DE053EA305A
:1011900060F0292D21542A3110F4E75006C0292D82
:1011A00021562A3120F5E92DE7552E2F30E02C1756
:1011B0003D07ECF447FD17C0C616D706E806F9064A
:1011C00078F09B01AC01C301B201AAD06E0F711D72
:1011D000811D911D61307105810520E8920710F095
:1011E0004FEF01C041E0F80191908F01CECFA114E3
:1011F000B10481F0442331F001501109F50111834C
:10120000008308C081FE1AC002501109F501118344
:10121000008314C047FF12C080FE05C060E070E08C
:1012200080E090E804C06FEF7FEF8FEF9FE722E24E
:1012300030E0309392042093910416C080FE08C0E1
:1012400090958095709561957F4F8F4F9F4F0CC003
:1012500097FF0AC082E290E09093920480939104F9
:101260006FEF7FEF8FEF9FE78B019C0112C000E0D3
:1012700010E098010EC080E3982E209709F462CF09
:1012800043CFF0E39F1240CF30CF20E3921251CFF3
:101290002CCFB801C901CDB7DEB7E0E178C091111C
:1012A0002CC0803219F089508550D0F70895FB0189
:1012B000DC0101900D920020E1F70895FB019F01F0
:1012C000E8944230BCF04532ACF44A3029F497FB44
:1012D0001EF4909581959F4F642F772799DE805D4E
:1012E0008A330CF0895D8193CB010097A9F716F43E
:1012F0005DE251931082C90103C0992788270895A0
:10130000DC01FC01672F71917723E1F7329704C06C
:101310007C916D9370836291AE17BF07C8F30895F7
:10132000DB018F939F930BD0BF91AF91A29F800D54
:10133000911DA39F900DB29F900D1124089540D050
:10134000A59F900DB49F900DA49F800D911D112419
:1013500008952F923F924F925F926F927F928F9259
:101360009F92AF92BF92CF92DF92EF92FF920F9334
:101370001F93CF93DF93CDB7DEB7CA1BDB0B0FB63E
:10138000F894DEBF0FBECDBF09942A8839884888FB
:101390005F846E847D848C849B84AA84B984C88491
:1013A000DF80EE80FD800C811B81AA81B981CE0F88
:1013B000D11D0FB6F894DEBF0FBECDBFED0108956D
:1013C000A29FB001B39FC001A39F01D0B29F700D37
:0C13D000811D1124911D0895F894FFCF99
:1013DC000100000D0A00413F0057616B6500486138
:1013EC006C7400436F6D6D616E643F0069720054E4
:1013FC007970653F006E6563004461746120696EAD
:10140C00204E454320666F726D6174004375737492
:10141C006F6D657220636F64653F28426173653A36
:10142C0031362900446174613F28426173653A3159
:10143C0036290030004578697400415652004952F3
:04144C0000307800F4
:00000001FF
