:1000000019C0C2C7C2C731C030C02FC02EC02DC05A
:100010002CC04CC72BC0CDC328C027C055C325C09A
:1000200024C023C0E3C155C180C11FC01EC01DC074
:100030001CC01BC011241FBECFEFD4E0DEBFCDBF5C
:1000400011E0A0E0B1E0E6E9F5E102C005900D9213
:10005000AE3CB107D9F724E0AEECB1E001C01D928F
:10006000AE3EB207E1F7C7D794CA9EC71F920F9260
:100070000FB60F9211242F938F939F93EF93FF93BB
:100080008091E101811120C081E08093E201E1E8EB
:10009000F0E0908180E489278083809186009091B0
:1000A00087001092850010928400009769F02091DB
:1000B000E801E22FF0E0EE0FFF1FE451FD4F9183C6
:1000C00080832F5F2093E801FF91EF919F918F91A3
:1000D0002F910F900FBE0F901F9018959091E201F5
:1000E0002091E101922B09F051C092E094BD95BDA1
:1000F00096E497BD219A2998882381F18091E201A5
:10010000811144C0E4E6F0E08081886080838081D2
:10011000877F8083E2E8F0E08081806880831092AE
:100120006F00E0E8F0E01082A1E8B0E01C9282E00D
:10013000808389E18C938AE190E09093870080939B
:1001400086008AE18093880080818068808387EAC6
:1001500091E60197F1F700C0000008958091E10158
:10016000811114C0109280008AE8809381008FEF83
:100170009FE1909389008093880082E280936F00D2
:10018000E2E8F0E080818068808320980895FB0198
:10019000443068F05BEA459F512D11245695952F08
:1001A000990F950F491B8170511106C016C041115E
:1001B00023C0208131811DC090E0682F6660A0813E
:1001C000B181A458BC4F6C93208131812F5F3F4F88
:1001D000318320839F5F9513F2CF20813181440FBB
:1001E000842BD901A458BC4F8C932F5F3F4F318390
:1001F0002083822F932F08958170EFCFCF93DF93C9
:10020000EB01882341F041E081E0C1DF43E0BE0122
:1002100080E0BDDF07C041E081E0B9DF41E0BE0121
:1002200080E0B5DF88819981DF91CF910895CF93E8
:10023000DF939C01EB01BC0176956795CB01A0E0B3
:10024000B0E0BC01CD016C5D7B408F4F9F4F40E023
:1002500050E0BBD7215031093093C5002093C40032
:1002600088ED8093C100C530D10531F0289731F475
:1002700086E08093C20002C01092C200DF91CF914D
:1002800008959091DF018091E001981758F49091C2
:10029000DF01E92FF0E0E451FC4F80819F5F9093F4
:1002A000DF01089580E008952091DE019091DD0145
:1002B00081E0291380E008958091DD01E82FF0E0CE
:1002C000E451FE4F90819093C6008F5F8093DD01D3
:1002D00008951F920F920FB60F9211242F933F9300
:1002E0004F935F936F937F938F939F93AF93BF933E
:1002F000EF93FF93D9DF882331F0E1ECF0E08081C8
:100300008F7D808301C0D8DFFF91EF91BF91AF91C6
:100310009F918F917F916F915F914F913F912F911D
:100320000F900FBE0F901F9018951895F89440915C
:10033000DE012091DD014F5F50E030E042175307AE
:10034000B1F39091DE01E92FF0E0E451FE4F80839C
:100350009F5F9093DE012091DE018091DD0130E00E
:1003600090E001962817390729F4E1ECF0E080814C
:100370008062808378940895CF93DF93EC01888125
:10038000882331F0219690E0D1DF89918111FBCF54
:10039000DF91CF91089583E091E0EEDF0895FBDFD8
:1003A0001092DC010895E8DFF6DF08959093EB01E9
:1003B0008093EA012091DA01222321F081E08093E9
:1003C000DB01089525E031E0FC012083089581E000
:1003D0008093DA010895FBDF81E08093DC010895CA
:1003E000843219F481E08093D30108951F920F9213
:1003F0000FB60F9211241F932F933F934F935F9348
:100400006F937F938F939F93AF93BF93EF93FF93DC
:10041000CF93DF93CDB7DEB7C154D109DEBFCDBFD7
:100420008091C60089838981DBDF8091DC0188238C
:10043000A1F18981883041F48091E001E82FF0E05A
:1004400081508093E00107C08091E001E82FF0E047
:100450008F5F8093E0018981E451FC4F8083898123
:1004600090E064DF89818D30C1F410E00ADF8823D9
:1004700049F0E2E0F0E0EC0FFD1FE10FF11D808399
:100480001F5FF4CF1150E2E0F0E0EC0FFD1FE10F31
:10049000F11D1082CE01029689DFCF5BDF4F0FB6D0
:1004A000F894DEBF0FBECDBFDF91CF91FF91EF91EA
:1004B000BF91AF919F918F917F916F915F914F917C
:1004C0003F912F911F910F900FBE0F901F90189585
:1004D000F8941FBA92BD81BD60BDFA9AF99AF99954
:1004E000FECF78940895F89492BD81BDF89AF99959
:1004F000FECF789480B50895811101C08FEF90E010
:100500000DC0E7EAF1E63197F1F700C000009F5F08
:10051000891720F41092DA0180E008952091DB0120
:10052000222379F31092DB0181E00895CF93C62F47
:100530003ADF51DF8C2FE0DFC82F31DF1092DA0174
:10054000CC2329F02091EA013091EB0102C021E097
:1005500031E0822F932FCF91089540E0242F30E097
:10056000FC01E20FF31F5081511109C0FB01E20FA2
:10057000F31F81E09081992359F080E00895FB01F9
:10058000E20FF31F2081521302C04F5FE7CF80E0DC
:1005900008958BE18093810082E08093800008952C
:1005A000E4E6F0E080818F7D808381E097DD08952F
:1005B000CF92DF92EF92FF920F931F93CF93DF932F
:1005C00000D0CDB7DEB77C01D62E1A82198240E169
:1005D000BE016F5F7F4F81E0DADD48E0BE016F5FF3
:1005E0007F4F80E0D4DD0FE010E0C701002E02C095
:1005F000959587950A94E2F7BE016F5F7F4F8170F2
:10060000FDDD0150110988F707E010E0ED2CF12C19
:10061000C701002E02C0959587950A94E2F7BE01A6
:100620006F5F7F4F8170EADD0150110988F707E0A5
:1006300010E0E094F094C701002E02C095958795D4
:100640000A94E2F7BE016F5F7F4F8170D7DD0150E2
:10065000110988F741E0BE016F5F7F4F81E097DDB0
:1006600041E0BE016F5F7F4F80E091DD89819A811B
:100670008036910564F4FC01E458FC4F1082019629
:1006800080369105C1F780E690E09A83898388DF00
:1006900081E08093E101EEE6F0E08081826080837A
:1006A0000F900F90DF91CF911F910F91FF90EF90DE
:1006B000DF90CF900895E4E6F0E08081806280834F
:1006C00081E08093D20108951F920F920FB60F928E
:1006D00011242F933F934F935F936F937F938F9347
:1006E0009F93AF93BF93EF93FF93E0E8F0E0808197
:1006F00081FFFDCF89E080938800E091E301F091D4
:10070000E401E458FC4F808180FF07C0E0E8F0E09E
:100710008081806880835F9A06C0E0E8F0E0808195
:100720008F7780835F98E091E301F091E401E458D2
:10073000FC4F8081869596E4899F802D112487BD8A
:100740008091E3019091E40101969093E4018093FC
:10075000E301E091E301F091E401E458FC4F808172
:10076000811112C0E0E8F0E080818F778083EEE6AF
:10077000F0E080818D7F80831092E4011092E3018C
:1007800029981092E10197DFFF91EF91BF91AF910E
:100790009F918F917F916F915F914F913F912F9199
:1007A0000F900FBE0F901F90189581E08093D1019C
:1007B00008951F920F920FB60F9211242F933F931B
:1007C0004F935F936F937F938F939F93AF93BF9359
:1007D000EF93FF938091E201882309F4A8C110925E
:1007E000E2018091E801813408F4A1C11092E8018E
:1007F0008091EE029091EF02893E93400CF497C1F4
:100800008091EE029091EF028A3B94400CF08FC1F0
:100810008091F0029091F1028B3E91400CF487C1DF
:100820008091F0029091F102823692400CF07FC1EB
:100830008091F2029091F302C3970CF478C18091F9
:10084000F2029091F30280359105CCF070C1862FB1
:1008500090E0FC01EE0FFF1FE451FD4F208131813C
:10086000233331050CF463C1FC01EE0FFF1FE4518B
:10087000FD4F80819181803591052CF058C17FE03A
:1008800063E041E050E0862F8F5F90E0FC01EE0FC7
:10089000FF1FE451FD4F2081318123333105F4F0F6
:1008A000FC01EE0FFF1FE451FD4F20813181203507
:1008B0003105A4F42091E6013091E701CA01072E29
:1008C00002C0880F991F0A94E2F7809590958223C1
:1008D00093239093E7018093E60125C0FC01EE0F7E
:1008E000FF1FE451FD4F208131812F3B3105DCF0AA
:1008F000FC01EE0FFF1FE451FD4F80819181873D88
:1009000091058CF48091E6019091E7019A01072E00
:1009100002C0220F331F0A94E2F7822B932B90938D
:10092000E7018093E6016E5F7150703108F48FCF5C
:10093000862F90E0FC01EE0FFF1FE451FD4F208158
:100940003181233331050CF4F2C0FC01EE0FFF1F9F
:10095000E451FD4F8081918180359105CCF0E7C055
:10096000862F90E0FC01EE0FFF1FE451FD4F208128
:100970003181233331050CF4DAC0FC01EE0FFF1F87
:10098000E451FD4F808191818035910524F0CFC0E5
:1009900077E041E050E0862F8F5F90E0FC01EE0FA2
:1009A000FF1FE451FD4F2081318123333105C4F015
:1009B000FC01EE0FFF1FE451FD4F208131812035F6
:1009C000310574F42091E501CA01072E02C0880F99
:1009D000991F0A94E2F7809582238093E50120C055
:1009E000FC01EE0FFF1FE451FD4F208131812F3BB1
:1009F0003105B4F0FC01EE0FFF1FE451FD4F808183
:100A00009181873D910564F42091E501CA01072E8B
:100A100002C0880F991F0A94E2F7822B8093E501A8
:100A20006E5F7150783008F49BCF862F90E0FC0108
:100A3000EE0FFF1FE451FD4F20813181233331053B
:100A40000CF475C0FC01EE0FFF1FE451FD4F8081D7
:100A5000918180359105CCF06AC0862F90E0FC0131
:100A6000EE0FFF1FE451FD4F20813181233331050B
:100A70000CF45DC0FC01EE0FFF1FE451FD4F8081BF
:100A80009181803591052CF052C077E0A0E041E0E3
:100A900050E0862F8F5F90E0FC01EE0FFF1FE451C6
:100AA000FD4F2081318123333105A4F0FC01EE0F8D
:100AB000FF1FE451FD4F208131812035310554F471
:100AC000CA01072E02C0880F991F0A94E2F7809589
:100AD000A8231CC0FC01EE0FFF1FE451FD4F208135
:100AE00031812F3B310594F0FC01EE0FFF1FE451E3
:100AF000FD4F80819181873D910544F4CA01072E05
:100B000002C0880F991F0A94E2F7A82B6E5F7150FC
:100B1000783008F4A2CF8091E501A095A81307C012
:100B20006091E5018091E6019091E7013EDEFF9141
:100B3000EF91BF91AF919F918F917F916F915F9155
:100B40004F913F912F910F900FBE0F901F901895CE
:100B50000F931F93CF93DF938C01EB018091E10101
:100B6000811138C016DD89E09DE3B8011AD3709376
:100B70008700609386007595679570938B006093EE
:100B80008A0083EC99E00197F1F700C00000E0E8EB
:100B9000F0E0808180628083E3ECF9E03197F1F747
:100BA00000C00000F894209769F0BE0180E090E05A
:100BB000E9EFF0E03197F1F700C0000001968617E9
:100BC0009707B1F77894E0E8F0E080818F7D80832B
:100BD00080E084DADF91CF911F910F910895CF9338
:100BE000DF936AE086E091E0A1DCEC01DCDB81E0F0
:100BF0009881911101C080E0DF91CF910895EFDFDE
:100C0000811115C089E091E0CEDB2C9A89EF90E04C
:100C10000197F1F700C000002C9864E670E088EBC3
:100C200091E096DF64E670E080E793E091DF109258
:100C3000D4010895D4DF882369F08EE091E0B3DB1E
:100C400064E670E088EB91E083DF64E670E08CEDB1
:100C500090E07EDF1092D5010895CF92DF92EF925F
:100C6000FF920F931F93CF93DF93CDB7DEB7C0559D
:100C7000D1090FB6F894DEBF0FBECDBF64E683E1A5
:100C800091E054DC8C018FDB6CE171E0C80165DC24
:100C90008823E9F164E68FE191E048DC8C0165E2AC
:100CA00071E05BDC882339F189E291E07CDB64E66A
:100CB00084E391E03BDCBC01CE018196C1D364E6C4
:100CC0008CE491E033DCBC01CE010196B9D340E164
:100CD00050E0BE016F5B7F4FCE01819698D26B01D1
:100CE0007C0140E150E0BE016F5B7F4FCE01019679
:100CF0008ED2C6015DDC6BE571E0C8012EDC882375
:100D000009F4C1C064E987EC91E252DCBCC06DE536
:100D100071E0C80122DC882309F46FC083E691E00A
:100D200042DB8091E6019091E70140E150E0BE0195
:100D30006F5F7F4F8CD337DB8091CE0140E150E075
:100D4000BE016F5F7F4F90E082D32DDB86E791E09D
:100D50002ADB8091D1018823E1F31092D10188E848
:100D600091E021DB8091E6019091E70140E150E0C4
:100D7000BE016F5F7F4F6BD316DB8091E50140E1D1
:100D800050E0BE016F5F7F4F90E061D30CDB64E603
:100D900081E991E0CBDB6EE971E0DFDB882309F4C8
:100DA00072C08091E6019091E7019093D001809309
:100DB000CF018091E5018093CE016091CF017091C8
:100DC000D00181E090E084DB6091CF017091D0018F
:100DD000672F770F770B82E090E07ADB6091CE018E
:100DE00083E090E075DB87EA91E60197F1F700C0B8
:100DF000000080EA91E0D7DA46C068EA71E0C801F5
:100E0000ACDB882309F43FC08CEA91E0CCDA81E0C6
:100E10008093DA01E0DA8091DB0181112FC00AE7CB
:100E200010E00F2EF8E7EF2EF12CF02D9FE3EDE010
:100E3000F3E09150E040F040E1F700C00000F8011D
:100E4000808180648083808186FF0AC083EC99E082
:100E50000197F1F700C00000F801808186FDF6CF10
:100E6000F701808191814AE050E0BE016F5F7F4FC2
:100E70000DD399DA8091DB018823C1F21092DA0157
:100E80001092DB018CDA82EC91E08DDAC05BDF4FEF
:100E90000FB6F894DEBF0FBECDBFDF91CF911F918B
:100EA0000F91FF90EF90DF90CF9008951F920F92D7
:100EB0000FB60F9211242F933F938F939F93EF932D
:100EC000FF9380910001982F9F5F90930001811103
:100ED00050C0EAE7F0E0808180648083808186FFF3
:100EE00009C083EC99E00197F1F700C00000808110
:100EF00086FDF7CF8091D8019091D901892B41F4DB
:100F000080917800909179009093D9018093D801D5
:100F100080917800909179009093D7018093D601C9
:100F20008091D6019091D7012091D8013091D901BB
:100F3000821B930B893C910524F081E08093D401BE
:100F400010C08091D6019091D7012091D8013091A5
:100F5000D901821B930B88339F4F1CF481E080934F
:100F6000D50180917800909179009093D901809378
:100F7000D801FF91EF919F918F913F912F910F9009
:100F80000FBE0F901F90189518951F920F920FB6D5
:100F90000F9211248F9381E08093D3018F910F9052
:100FA0000FBE0F901F9018951F920F920FB60F92C1
:100FB00011242F933F934F935F936F937F938F935E
:100FC0009F93AF93BF93EF93FF9360ED77E088EB30
:100FD00091E0BEDDFF91EF91BF91AF919F918F9115
:100FE0007F916F915F914F913F912F910F900FBE25
:100FF0000F901F901895CF93DF9300D000D0CDB7FE
:10100000DEB78FEF8AB91BB89EEF97B918B884B9CD
:1010100015B81092B00087E08093B100E0E7F0E0EF
:1010200010828081816080831092B20084E8809376
:101030007A0010927C0083EC99E00197F1F700C0F0
:10104000000080E04BD8E3ECF9E03197F1F700C005
:10105000000068E070E080EC92E1E9D85298539883
:101060005B9A8DE08093690083E08DBB81E090E026
:101070003ADA182F82E090E036DA382F20E0212B80
:101080003093D0012093CF0183E090E02CDA80935D
:10109000CE01789487EC91E086D983B7817F866012
:1010A00083BFE4E6F0E08081806880838081846093
:1010B000808380818062808301EC10E00F2EF0E756
:1010C000EF2EF12CF02DF801808185FDFCCF809171
:1010D000E2018111FCCF8091D401811190DD8091DA
:1010E000D5018111A7DD8091D201882311F080E024
:1010F000F5D78091D101882369F11092D101209117
:10110000E6013091E7018091CF019091D00128173D
:10111000390741F49091E5018091CE01981302C006
:101120006EDD18C08BEC91E03ED98091E601909184
:10113000E70140E150E0BE016F5F7F4F88D133D9B6
:101140008091E50140E150E0BE016F5F7F4F90E08C
:101150007ED129D98091D301882369F0F70180815C
:101160008E7F80835F9A79DD1092D301F7018081B1
:10117000816080835F98F801808185FDFCCF80913C
:10118000E2018111FCCF89EF90E00197F1F700C0F7
:10119000000083B7816083BF889583B78E7F83BF4C
:1011A00092CFAA1BBB1B51E107C0AA1FBB1FA617EA
:1011B000B70710F0A61BB70B881F991F5A95A9F700
:1011C00080959095BC01CD010895A1E21A2EAA1B2D
:1011D000BB1BFD010DC0AA1FBB1FEE1FFF1FA217E7
:1011E000B307E407F50720F0A21BB30BE40BF50BE4
:1011F000661F771F881F991F1A9469F7609570956D
:10120000809590959B01AC01BD01CF010895A0E0B0
:10121000B0E0ECE0F9E07CC15B01EA016115710529
:1012200019F0FB0180839183209739F09E012250B1
:1012300031092332310508F0E3C07C01F7019190B8
:101240007F018F01892D90E0F3D0892BB9F7FDE262
:101250009F1206C0F70191908F018824839407C0E4
:10126000FBE29F1203C0F70191908F01812C209720
:1012700009F4D4C0C031D10581F4CCC0F80180811B
:10128000883719F0883509F0BFC0F80191800E5FEA
:101290001F4FF2E08F2AC0E1D0E0C830D105D9F06D
:1012A00024F4C230D105F9F407C0CA30D10551F099
:1012B000C031D105C1F424C0C12CD12CE12C40E4B3
:1012C000F42E23C0CAE0D0E03CECC32EDC2CEC2C86
:1012D0003CE0F32E1AC0C8E0D0E0C12CD12CE12CA8
:1012E00020E1F22E12C09E01442737FD4095542F75
:1012F00060E070E080E090E868DF69017A0105C095
:10130000C12CD12CE12C98E0F92E40E060E070E097
:10131000CB012E01662457FC6094762CE92DE05316
:10132000EA3060F0292D21542A3110F4E75006C02C
:10133000292D21562A3120F5E92DE7552E2F30E0B1
:101340002C173D07ECF447FD17C0C616D706E80674
:10135000F90678F09B01AC01C301B201BED06E0F5B
:10136000711D811D911D61307105810520E8920775
:1013700010F04FEF01C041E0F80191908F01CECF06
:10138000A114B10481F0442331F001501109F50199
:101390001183008308C081FE1AC002501109F501B3
:1013A0001183008314C047FF12C080FE05C060E0B7
:1013B00070E080E090E804C06FEF7FEF8FEF9FE771
:1013C00022E230E03093ED042093EC0416C080FE5E
:1013D00008C090958095709561957F4F8F4F9F4F76
:1013E0000CC097FF0AC082E290E09093ED048093D6
:1013F000EC046FEF7FEF8FEF9FE78B019C0112C032
:1014000000E010E098010EC080E3982E209709F4C8
:1014100062CF43CFF0E39F1240CF30CF20E3921250
:1014200051CF2CCFB801C901CDB7DEB7E0E18CC0F8
:10143000911140C0803219F089508550D0F708953D
:10144000FB01DC0101900D920020E1F70895FB0102
:101450009F01E8944230BCF04532ACF44A3029F4A4
:1014600097FB1EF4909581959F4F642F772799DE07
:10147000805D8A330CF0895D8193CB010097A9F7D9
:1014800016F45DE251931082C90117C0FB019F0160
:1014900042306CF045325CF4642F772782DE805D49
:1014A0008A330CF0895D8193CB010097A9F71082F4
:1014B000C90103C0992788270895DC01FC01672F23
:1014C00071917723E1F7329704C07C916D9370831B
:1014D0006291AE17BF07C8F30895DB018F939F9306
:1014E0000BD0BF91AF91A29F800D911DA39F900D36
:1014F000B29F900D1124089540D0A59F900DB49FE8
:10150000900DA49F800D911D112408952F923F925C
:101510004F925F926F927F928F929F92AF92BF9203
:10152000CF92DF92EF92FF920F931F93CF93DF93AF
:10153000CDB7DEB7CA1BDB0B0FB6F894DEBF0FBE0C
:10154000CDBF09942A88398848885F846E847D8459
:101550008C849B84AA84B984C884DF80EE80FD805B
:101560000C811B81AA81B981CE0FD11D0FB6F894D1
:10157000DEBF0FBECDBFED010895A29FB001B39FA6
:10158000C001A39F01D0B29F700D811D1124911D38
:061590000895F894FFCF5E
:101596000100000D0A00413F0057616B650048617C
:1015A6006C7400436F6D6D616E643F006972005428
:1015B6007970653F006E6563004E454320666F7225
:1015C6006D617400437573746F6D657220636F642B
:1015D600653F28426173653A31362900446174617A
:1015E6003F28426173653A313629003000706F77C3
:1015F60065720043757272656E7420536574746902
:101606006E672069730057616974696E6720666F3B
:10161600722049522E2E2E005265636569766564E6
:10162600004170706C793F2028792F4E290079008F
:101636005772697474656E006364730053656E73E4
:101646006574697669747920416C69676E6D656E3B
:0E1656007400457869740041565200495200F4
:00000001FF
