:1000000035C044C844C84DC04CC04BC04AC049C0AC
:1000100048C0CEC747C00FC444C043C09CC341C002
:1000200040C03FC013C271C19CC13BC03AC039C07F
:1000300038C037C0436F6D6D616E643F00437573A8
:10004000746F6D657220636F64653F2842617365EC
:100050003A3136290053656E73657469766974792F
:1000600020416C69676E6D656E74000011241FBEBF
:10007000CFEFD4E0DEBFCDBF11E0A0E0B1E0EAEA0F
:10008000F6E102C005900D92AC3AB107D9F724E031
:10009000ACEAB1E001C01D92AC3CB207E1F72DD84B
:1000A00002CB04C81F920F920FB60F9211242F9308
:1000B0008F939F93EF93FF938091BF01811120C095
:1000C00081E08093C001E1E8F0E0908180E489273D
:1000D0008083809186009091870010928500109215
:1000E0008400009769F02091C601E22FF0E0EE0F46
:1000F000FF1FE653FD4F918380832F5F2093C6013E
:10010000FF91EF919F918F912F910F900FBE0F90C4
:100110001F9018959091C0012091BF01922B09F07A
:1001200051C092E094BD95BD97E497BD219A29985E
:10013000882381F18091C001811144C0E4E6F0E0A0
:100140008081886080838081877F8083E2E8F0E01F
:1001500080818068808310926F00E0E8F0E0108278
:10016000A1E8B0E01C9282E0808389E18C938AE16F
:1001700090E090938700809386008AE180938800C6
:1001800080818068808387EA91E60197F1F700C05B
:10019000000008958091BF01811114C01092800069
:1001A0008AE8809381008FEF9FE19093890080938C
:1001B000880082E280936F00E2E8F0E0808180684E
:1001C000808320980895FB01443068F05BEA459FE6
:1001D000512D11245695952F990F950F491B81701C
:1001E000511106C016C0411123C0208131811DC0AC
:1001F00090E0682F6660A081B181A65ABC4F6C93D5
:10020000208131812F5F3F4F318320839F5F951382
:10021000F2CF20813181440F842BD901A65ABC4FE3
:100220008C932F5F3F4F31832083822F932F08952C
:100230008170EFCFCF93DF93EB01882341F041E052
:1002400081E0C1DF43E0BE0180E0BDDF07C041E0E7
:1002500081E0B9DF41E0BE0180E0B5DF88819981AE
:10026000DF91CF910895CF93DF939C01EB01BC0107
:1002700076956795CB01A0E0B0E0BC01CD016C5D47
:100280007B408F4F9F4F40E050E029D821503109EB
:100290003093C5002093C40088ED8093C100C53021
:1002A000D10531F0289731F486E08093C20002C076
:1002B0001092C200DF91CF9108959091BD0180917D
:1002C000BE01981758F49091BD01E92FF0E0E65374
:1002D000FC4F80819F5F9093BD01089580E0089559
:1002E0002091BC019091BB0181E0291380E0089529
:1002F0008091BB01E82FF0E0E653FE4F9081909390
:10030000C6008F5F8093BB0108951F920F920FB6B6
:100310000F9211242F933F934F935F936F937F938B
:100320008F939F93AF93BF93EF93FF93D9DF88236E
:1003300031F0E1ECF0E080818F7D808301C0D8DF77
:10034000FF91EF91BF91AF919F918F917F916F91AD
:100350005F914F913F912F910F900FBE0F901F9083
:1003600018951895F8944091BC012091BB014F5FFE
:1003700050E030E042175307B1F39091BC01E92FF0
:10038000F0E0E653FE4F80839F5F9093BC01209185
:10039000BC018091BB0130E090E00196281739073D
:1003A00029F4E1ECF0E08081806280837894089504
:1003B000CF93DF93EC01FC018491882339F090E026
:1003C000D1DF2196FE0184918111F9CFDF91CF9188
:1003D0000895CF93DF93EC018881882331F0219633
:1003E00090E0C0DF89918111FBCFDF91CF9108951B
:1003F00083E091E0EEDF0895DBDFFADF0895F8DFB8
:100400001092BA010895E5DFF3DF08959093C901D2
:100410008093C8012091B801222321F081E08093CC
:10042000B901089525E031E0FC012083089581E0C1
:100430008093B8010895FBDF81E08093BA010895AD
:10044000843219F481E08093B10108951F920F92D4
:100450000FB60F9211241F932F933F934F935F93E7
:100460006F937F938F939F93AF93BF93EF93FF937C
:10047000CF93DF93CDB7DEB7C154D109DEBFCDBF77
:100480008091C60089838981DBDF8091BA0188234E
:10049000A1F18981883041F48091BE01E82FF0E01C
:1004A00081508093BE0107C08091BE01E82FF0E02B
:1004B0008F5F8093BE018981E653FC4F80838981E1
:1004C00090E050DF89818D30C1F410E0F6DE8823A2
:1004D00049F0E2E0F0E0EC0FFD1FE10FF11D808339
:1004E0001F5FF4CF1150E2E0F0E0EC0FFD1FE10FD1
:1004F000F11D1082CE01029689DFCF5BDF4F0FB670
:10050000F894DEBF0FBECDBFDF91CF91FF91EF9189
:10051000BF91AF919F918F917F916F915F914F911B
:100520003F912F911F910F900FBE0F901F90189524
:10053000F8941FBA92BD81BD60BDFA9AF99AF999F3
:10054000FECF78940895F89492BD81BDF89AF999F8
:10055000FECF789480B50895811101C08FEF90E0AF
:100560000DC0E7EAF1E63197F1F700C000009F5FA8
:10057000891720F41092B80180E008952091B90104
:10058000222379F31092B90181E00895CF93C62F09
:100590003ADF51DF8C2FE0DFC82F31DF1092B80136
:1005A000CC2329F02091C8013091C90102C021E07B
:1005B00031E0822F932FCF910895CF93C62F1CDF68
:1005C0003ADF8C2FC9DFC82F1ADF1092B801CC2375
:1005D00029F02091C8013091C90102C021E031E029
:1005E000822F932FCF91089540E0242F30E0FC011B
:1005F000E20FF31F5081511109C0FB01E20FF31FFD
:1006000081E09081992359F080E00895FB01E20F89
:10061000F31F2081521302C04F5FE7CF80E008959F
:100620008BE18093810082E0809380000895E4E66E
:10063000F0E080818F7D808381E06CDD0895CF9232
:10064000DF92EF92FF920F931F93CF93DF9300D02F
:10065000CDB7DEB77C01D62E1A82198240E1BE01E9
:100660006F5F7F4F81E0AFDD48E0BE016F5F7F4F7E
:1006700080E0A9DD0FE010E0C701002E02C09595D3
:1006800087950A94E2F7BE016F5F7F4F8170D2DDDC
:100690000150110988F707E010E0ED2CF12CC7019B
:1006A000002E02C0959587950A94E2F7BE016F5F10
:1006B0007F4F8170BFDD0150110988F707E010E01E
:1006C000E094F094C701002E02C0959587950A9496
:1006D000E2F7BE016F5F7F4F8170ACDD0150110901
:1006E00088F741E0BE016F5F7F4F81E06CDD41E044
:1006F000BE016F5F7F4F80E066DD89819A81803621
:10070000910564F4FC01E65AFC4F10820196803694
:100710009105C1F780E690E09A83898388DF81E0C4
:100720008093BF01EEE6F0E08081826080830F90CD
:100730000F90DF91CF911F910F91FF90EF90DF907D
:10074000CF900895E4E6F0E080818062808381E0CC
:100750008093B00108951F920F920FB60F9211244B
:100760002F933F934F935F936F937F938F939F93B9
:10077000AF93BF93EF93FF9389E080938800E0915C
:10078000C101F091C201E65AFC4F808180FF07C091
:10079000E0E8F0E08081806880835E9A06C0E0E84F
:1007A000F0E080818F7780835E98E091C101F091C5
:1007B000C201E65AFC4F8081869597E4899F802D7F
:1007C000112487BD8091C1019091C201019690933F
:1007D000C2018093C101E091C101F091C201E65ACA
:1007E000FC4F8081811112C0E0E8F0E080818F77BA
:1007F0008083EEE6F0E080818D7F80831092C201DD
:100800001092C10129981092BF019CDFFF91EF91D6
:10081000BF91AF919F918F917F916F915F914F9118
:100820003F912F910F900FBE0F901F90189581E070
:100830008093AF0108951F920F920FB60F9211246B
:100840002F933F934F935F936F937F938F939F93D8
:10085000AF93BF93EF93FF938091C001882309F476
:10086000A8C11092C0018091C601813408F4A1C1D1
:100870001092C6018091CC029091CD02893E9340A6
:100880000CF497C18091CC029091CD028A3B9440A8
:100890000CF08FC18091CE029091CF028B3E91409F
:1008A0000CF487C18091CE029091CF0282369240A3
:1008B0000CF07FC18091D0029091D102C3970CF4CB
:1008C00078C18091D0029091D10280359105CCF011
:1008D00070C1862F90E0FC01EE0FFF1FE653FD4F25
:1008E00020813181233331050CF463C1FC01EE0F0B
:1008F000FF1FE653FD4F80819181803591052CF0DB
:1009000058C17FE063E041E050E0862F8F5F90E0C8
:10091000FC01EE0FFF1FE653FD4F20813181233391
:100920003105F4F0FC01EE0FFF1FE653FD4F20816F
:10093000318120353105A4F42091C4013091C501E5
:10094000CA01072E02C0880F991F0A94E2F780950A
:100950009095822393239093C5018093C40125C071
:10096000FC01EE0FFF1FE653FD4F208131812F3B2D
:100970003105DCF0FC01EE0FFF1FE653FD4F8081D7
:100980009181873D91058CF48091C4019091C501BE
:100990009A01072E02C0220F331F0A94E2F7822B1E
:1009A000932B9093C5018093C4016E5F7150703199
:1009B00008F48FCF862F90E0FC01EE0FFF1FE65367
:1009C000FD4F20813181233331050CF4F2C0FC014D
:1009D000EE0FFF1FE653FD4F808191818035910519
:1009E000CCF0E7C0862F90E0FC01EE0FFF1FE6532E
:1009F000FD4F20813181233331050CF4DAC0FC0135
:100A0000EE0FFF1FE653FD4F8081918180359105E8
:100A100024F0CFC077E041E050E0862F8F5F90E078
:100A2000FC01EE0FFF1FE653FD4F20813181233380
:100A30003105C4F0FC01EE0FFF1FE653FD4F20818E
:100A400031812035310574F42091C301CA01072E8C
:100A500002C0880F991F0A94E2F780958223809341
:100A6000C30120C0FC01EE0FFF1FE653FD4F2081A4
:100A700031812F3B3105B4F0FC01EE0FFF1FE6532F
:100A8000FD4F80819181873D910564F42091C301E0
:100A9000CA01072E02C0880F991F0A94E2F7822B21
:100AA0008093C3016E5F7150783008F49BCF862F1E
:100AB00090E0FC01EE0FFF1FE653FD4F20813181D6
:100AC000233331050CF475C0FC01EE0FFF1FE65314
:100AD000FD4F8081918180359105CCF06AC0862FD1
:100AE00090E0FC01EE0FFF1FE653FD4F20813181A6
:100AF000233331050CF45DC0FC01EE0FFF1FE653FC
:100B0000FD4F80819181803591052CF052C077E0B6
:100B1000A0E041E050E0862F8F5F90E0FC01EE0FF7
:100B2000FF1FE653FD4F2081318123333105A4F0AF
:100B3000FC01EE0FFF1FE653FD4F20813181203570
:100B4000310554F4CA01072E02C0880F991F0A9478
:100B5000E2F78095A8231CC0FC01EE0FFF1FE653AF
:100B6000FD4F208131812F3B310594F0FC01EE0FC8
:100B7000FF1FE653FD4F80819181873D910544F42D
:100B8000CA01072E02C0880F991F0A94E2F7A82B0A
:100B90006E5F7150783008F4A2CF8091C301A095A8
:100BA000A81307C06091C3018091C4019091C50151
:100BB0003EDEFF91EF91BF91AF919F918F917F9119
:100BC0006F915F914F913F912F910F900FBE0F90BA
:100BD0001F9018950F931F93CF93DF938C01EB0118
:100BE0008091BF01811138C01BDD89E09DE3B80110
:100BF00062D37093870060938600759567957093B4
:100C00008B0060938A0083EC99E00197F1F700C0B4
:100C10000000E0E8F0E0808180628083E3ECF9E0AE
:100C20003197F1F700C00000F894209769F0BE01F9
:100C300080E090E0E9EFF0E03197F1F700C00000CC
:100C4000019686179707B1F77894E0E8F0E0808185
:100C50008F7D808380E05EDADF91CF911F910F91CD
:100C60000895CF93DF936AE086E091E08FDCEC019A
:100C7000CADB81E09881911101C080E0DF91CF91C2
:100C80000895EFDF811115C089E091E0BCDB2C9A5B
:100C900089EF90E00197F1F700C000002C9864E61E
:100CA00070E088EB91E096DF64E670E080E793E027
:100CB00091DF1092B2010895D4DF882369F08EE0AD
:100CC00091E0A1DB64E670E088EB91E083DF64E60D
:100CD00070E08CED90E07EDF1092B3010895CF922A
:100CE000DF92EF92FF920F931F93CF93DF93CDB7D5
:100CF000DEB7C055D1090FB6F894DEBF0FBECDBF29
:100D000064E684E390E059DC8C017DDB63E171E013
:100D1000C8016ADC8823E9F164E686E191E036DC0B
:100D20008C016CE171E060DC882339F180E291E0B4
:100D30006ADB64E68DE390E040DCBC01CE01819685
:100D400009D464E68BE291E021DCBC01CE0101967E
:100D500001D440E150E0BE016F5B7F4FCE01819630
:100D6000E0D26B017C0140E150E0BE016F5B7F4F40
:100D7000CE010196D6D2C60162DC6AE371E0C801F9
:100D800033DC882309F401C164E987EC91E257DC84
:100D9000FCC06CE371E0C80127DC8823D1F164E674
:100DA00081E491E0F3DBBC01CE018196D3D367E40B
:100DB00071E0CE01819618DC882359F064E670E07A
:100DC00088EB91E007DF64E670E080E793E002DF04
:100DD000DCC069E471E0CE01819606DC882359F01D
:100DE00064E670E088EB91E0F5DE64E670E08CED9F
:100DF00090E0F0DECAC064E68BE491E0C7DBBC01A2
:100E0000CE010196A7D368EE73E088EB91E0E2DEB5
:100E1000BCC060E571E0C801E7DB882309F46FC05E
:100E200086E591E0F0DA8091C4019091C50140E13E
:100E300050E0BE016F5F7F4F94D3E5DA8091AC0143
:100E400040E150E0BE016F5F7F4F90E08AD3DBDA74
:100E500089E691E0D8DA8091AF018823E1F310921E
:100E6000AF018BE791E0CFDA8091C4019091C50189
:100E700040E150E0BE016F5F7F4F73D3C4DA8091D1
:100E8000C30140E150E0BE016F5F7F4F90E069D346
:100E9000BADA64E684E891E079DB61E971E0A4DB29
:100EA000882309F472C08091C4019091C501909388
:100EB000AE018093AD018091C3018093AC0160913C
:100EC000AD017091AE0181E090E032DB6091AD0147
:100ED0007091AE01672F770F770B82E090E028DBEF
:100EE0006091AC0183E090E023DB87EA91E6019713
:100EF000F1F700C0000083E991E085DA46C06BE9B4
:100F000071E0C80171DB882309F43FC085E590E0FA
:100F100073DA81E08093B8018EDA8091B901811192
:100F20002FC00AE710E00F2EF8E7EF2EF12CF02D7E
:100F30009FE3EDE0F3E09150E040F040E1F700C0C6
:100F40000000F801808180648083808186FF0AC070
:100F500083EC99E00197F1F700C00000F80180816F
:100F600086FDF6CFF701808191814AE050E0BE0115
:100F70006F5F7F4F15D347DA8091B9018823C1F2A3
:100F80001092B8011092B9013ADA8FE991E03BDA98
:100F9000C05BDF4F0FB6F894DEBF0FBECDBFDF9151
:100FA000CF911F910F91FF90EF90DF90CF90089518
:100FB0001F920F920FB60F9211242F933F938F938E
:100FC0009F93EF93FF9380910001982F9F5F9093E1
:100FD0000001811150C0EAE7F0E0808180648083E5
:100FE000808186FF09C083EC99E00197F1F700C08A
:100FF0000000808186FDF7CF8091B6019091B70106
:10100000892B41F480917800909179009093B701F9
:101010008093B60180917800909179009093B5010A
:101020008093B4018091B4019091B5012091B601F3
:101030003091B701821B930B893C910524F081E02C
:101040008093B20110C08091B4019091B5012091BC
:10105000B6013091B701821B930B88339F4F1CF46C
:1010600081E08093B3018091780090917900909312
:10107000B7018093B601FF91EF919F918F913F91BE
:101080002F910F900FBE0F901F90189518951F92DB
:101090000F920FB60F9211248F9381E08093B101CC
:1010A0008F910F900FBE0F901F9018951F920F9267
:1010B0000FB60F9211242F933F934F935F936F932B
:1010C0007F938F939F93AF93BF93EF93FF9360EDC5
:1010D00077E088EB91E07EDDFF91EF91BF91AF91DA
:1010E0009F918F917F916F915F914F913F912F9140
:1010F0000F900FBE0F901F901895CF93DF9300D0E5
:1011000000D0CDB7DEB78FEF8AB91BB89EEF97B985
:1011100018B884B915B81092B00087E08093B10078
:10112000E0E7F0E010828081816080831092B2005D
:1011300084E880937A0010927C0083EC99E0019718
:10114000F1F700C0000080E0E5D7E3ECF9E031976B
:10115000F1F700C0000068E070E080EC92E183D815
:10116000529853985B9A8DE08093690083E08DBB21
:1011700081E090E0E8D9182F82E090E0E4D9382FA0
:1011800020E0212B3093AE012093AD0183E090E06D
:10119000DAD98093AC01789484EA91E034D983B7AA
:1011A000817F866083BFE4E6F0E080818068808391
:1011B00080818460808380818062808301EC10E084
:1011C0000F2EF0E7EF2EF12CF02DF801808185FD38
:1011D000FCCF8091C0018111FCCF8091BF018111B2
:1011E000FCCF8091B20181114CDD8091B30181115E
:1011F00063DD8091B001882311F080E08BD780916E
:10120000AF01882369F11092AF012091C4013091A0
:10121000C5018091AD019091AE012817390741F4C5
:101220009091C3018091AC01981302C02ADD18C0CF
:1012300088EA91E0E8D88091C4019091C50140E12D
:1012400050E0BE016F5F7F4F8CD1DDD88091C3012C
:1012500040E150E0BE016F5F7F4F90E082D1D3D874
:101260008091B101882369F0F70180818E7F8083AE
:101270005F9A35DD1092B101F70180818160808332
:101280005F98F801808185FDFCCF8091C0018111BC
:10129000FCCF8091BF018111FCCF89EF90E00197D5
:1012A000F1F700C0000083B7816083BF889583B7E2
:1012B0008E7F83BF8ACFAA1BBB1B51E107C0AA1F29
:1012C000BB1FA617B70710F0A61BB70B881F991FE7
:1012D0005A95A9F780959095BC01CD010895A1E29A
:1012E0001A2EAA1BBB1BFD010DC0AA1FBB1FEE1FA0
:1012F000FF1FA217B307E407F50720F0A21BB30BEB
:10130000E40BF50B661F771F881F991F1A9469F766
:1013100060957095809590959B01AC01BD01CF01C2
:101320000895A0E0B0E0E6E9F9E07CC15B01EA01E4
:101330006115710519F0FB0180839183209739F0C5
:101340009E01225031092332310508F0E3C07C01AF
:10135000F70191907F018F01892D90E0F3D0892BC7
:10136000B9F7FDE29F1206C0F70191908F01882422
:10137000839407C0FBE29F1203C0F70191908F0195
:10138000812C209709F4D4C0C031D10581F4CCC0A0
:10139000F8018081883719F0883509F0BFC0F8015D
:1013A00091800E5F1F4FF2E08F2AC0E1D0E0C8307D
:1013B000D105D9F024F4C230D105F9F407C0CA3000
:1013C000D10551F0C031D105C1F424C0C12CD12CBC
:1013D000E12C40E4F42E23C0CAE0D0E03CECC32E64
:1013E000DC2CEC2C3CE0F32E1AC0C8E0D0E0C12C81
:1013F000D12CE12C20E1F22E12C09E01442737FDB2
:101400004095542F60E070E080E090E868DF69016B
:101410007A0105C0C12CD12CE12C98E0F92E40E0D6
:1014200060E070E0CB012E01662457FC6094762CBE
:10143000E92DE053EA3060F0292D21542A3110F4CF
:10144000E75006C0292D21562A3120F5E92DE75510
:101450002E2F30E02C173D07ECF447FD17C0C616C1
:10146000D706E806F90678F09B01AC01C301B2018A
:10147000BED06E0F711D811D911D613071058105FA
:1014800020E8920710F04FEF01C041E0F801919081
:101490008F01CECFA114B10481F0442331F001506B
:1014A0001109F5011183008308C081FE1AC00250A2
:1014B0001109F5011183008314C047FF12C080FE9B
:1014C00005C060E070E080E090E804C06FEF7FEF5F
:1014D0008FEF9FE722E230E03093CB042093CA04E1
:1014E00016C080FE08C090958095709561957F4FDD
:1014F0008F4F9F4F0CC097FF0AC082E290E09093FD
:10150000CB048093CA046FEF7FEF8FEF9FE78B01CF
:101510009C0112C000E010E098010EC080E3982EFC
:10152000209709F462CF43CFF0E39F1240CF30CF32
:1015300020E3921251CF2CCFB801C901CDB7DEB74D
:10154000E0E18CC0911140C0803219F08950855083
:10155000D0F70895FB01DC0101900D920020E1F726
:101560000895FB019F01E8944230BCF04532ACF491
:101570004A3029F497FB1EF4909581959F4F642F74
:10158000772799DE805D8A330CF0895D8193CB01EA
:101590000097A9F716F45DE251931082C90117C0B4
:1015A000FB019F0142306CF045325CF4642F7727D9
:1015B00082DE805D8A330CF0895D8193CB010097D8
:1015C000A9F71082C90103C0992788270895DC0173
:1015D000FC01672F71917723E1F7329704C07C916A
:1015E0006D9370836291AE17BF07C8F30895DB0156
:1015F0008F939F930BD0BF91AF91A29F800D911DB0
:10160000A39F900DB29F900D1124089540D0A59FE7
:10161000900DB49F900DA49F800D911D11240895ED
:101620002F923F924F925F926F927F928F929F92F2
:10163000AF92BF92CF92DF92EF92FF920F931F93E0
:10164000CF93DF93CDB7DEB7CA1BDB0B0FB6F89491
:10165000DEBF0FBECDBF09942A88398848885F84D1
:101660006E847D848C849B84AA84B984C884DF8042
:10167000EE80FD800C811B81AA81B981CE0FD11D26
:101680000FB6F894DEBF0FBECDBFED010895A29F47
:10169000B001B39FC001A39F01D0B29F700D811D07
:0A16A0001124911D0895F894FFCF66
:1016AA000100000D0A00413F0057616B6500486167
:1016BA006C7400697200547970653F006E6563004E
:1016CA004E454320666F726D617400446174613FD8
:1016DA0028426173653A31362900300062656570C7
:1016EA0000467265713F00410042004475723F0036
:1016FA00706F7765720043757272656E74205365F8
:10170A007474696E672069730057616974696E67DA
:10171A0020666F722049522E2E2E0052656365692B
:10172A00766564004170706C793F2028792F4E29C4
:10173A000079005772697474656E006364730045BA
:0C174A00786974004156520049520000BA
:00000001FF
