:1000000019C071C771C731C030C02FC02EC02DC0FC
:100010002CC0FBC62BC0D7C328C027C05FC325C0D8
:1000200024C023C0EDC15EC180C11FC01EC01DC061
:100030001CC01BC011241FBECFEFD4E0DEBFCDBF5C
:1000400011E0A0E0B1E0E0EEF4E102C005900D9215
:10005000AC3BB107D9F724E0ACEBB1E001C01D9295
:10006000AC3DB207E1F779D739CA4DC71F920F925D
:100070000FB60F9211242F938F939F93EF93FF93BB
:100080008091CF01811120C081E08093D001E1E80F
:10009000F0E0908180E489278083809186009091B0
:1000A00087001092850010928400009769F02091DB
:1000B000D601E22FF0E0EE0FFF1FE652FD4F9183D5
:1000C00080832F5F2093D601FF91EF919F918F91B5
:1000D0002F910F900FBE0F901F9018959091D00107
:1000E0002091CF01922B09F051C092E094BD95BDB3
:1000F00096E497BD219A2998882381F18091D001B7
:10010000811144C0E4E6F0E08081886080838081D2
:10011000877F8083E2E8F0E08081806880831092AE
:100120006F00E0E8F0E01082A1E8B0E01C9282E00D
:10013000808389E18C938AE190E09093870080939B
:1001400086008AE18093880080818068808387EAC6
:1001500091E60197F1F700C0000008958091CF016A
:10016000811114C0109280008AE8809381008FEF83
:100170009FE1909389008093880082E280936F00D2
:10018000E2E8F0E080818068808320980895FB0198
:10019000443068F05BEA459F512D11245695952F08
:1001A000990F950F491B8170511106C016C041115E
:1001B00023C0208131811DC090E0682F6660A0813E
:1001C000B181A659BC4F6C93208131812F5F3F4F85
:1001D000318320839F5F9513F2CF20813181440FBB
:1001E000842BD901A659BC4F8C932F5F3F4F31838D
:1001F0002083822F932F08958170EFCFCF93DF93C9
:10020000EB01882341F041E081E0C1DF43E0BE0122
:1002100080E0BDDF07C041E081E0B9DF41E0BE0121
:1002200080E0B5DF88819981DF91CF910895CF93E8
:10023000DF939C01EB01BC0176956795CB01A0E0B3
:10024000B0E0BC01CD016C5D7B408F4F9F4F40E023
:1002500050E074D7215031093093C5002093C40079
:1002600088ED8093C100C530D10531F0289731F475
:1002700086E08093C20002C01092C200DF91CF914D
:1002800008959091CD018091CE01981748F4E92FFF
:10029000F0E0E652FC4F80819F5F9093CD0108957E
:1002A00080E008959091CB0181E02091CC01291349
:1002B00080E008958091CB01E82FF0E0E652FE4FF8
:1002C00090819093C6008F5F8093CB018091CB018A
:1002D0009091CC01981305C0E1ECF0E080818F7D16
:1002E000808308951F920F920FB60F9211242F93BF
:1002F0003F934F935F936F937F938F939F93AF93AE
:10030000BF93EF93FF93D6DFFF91EF91BF91AF9132
:100310009F918F917F916F915F914F913F912F911D
:100320000F900FBE0F901F9018951F920F920FB64F
:100330000F9211240F900FBE0F901F901895F894F4
:100340009091CC01692F70E0AB014F5F5F4F552753
:100350002091CB0130E042175307D1F3FB01E65265
:10036000FE4F8083292F2F5F2093CC018091CB01FA
:1003700030E090E001962817390729F4E1ECF0E02D
:1003800080818062808378940895CF93DF93EC011D
:100390008881882331F0219690E0D1DF8991811105
:1003A000FBCFDF91CF91089583E091E0EEDF0895D8
:1003B000FBDF1092CA010895E8DFF6DF08959093FD
:1003C000D9018093D8012091C801222321F081E036
:1003D0008093C901089525E031E0FC012083089550
:1003E00081E08093C8010895DFDFFADF81E0809328
:1003F000CA010895843219F481E08093C1010895FF
:100400001F920F920FB60F9211241F932F933F93B9
:100410004F935F936F937F938F939F93AF93BF930C
:10042000EF93FF93CF93DF93CDB7DEB7C154D109DC
:10043000DEBFCDBF8091C60089838981DBDF8091DB
:10044000CA018823A1F18981883041F48091CE01CD
:10045000E82FF0E081508093CE0107C08091CE015B
:10046000E82FF0E08F5F8093CE018981E652FC4F48
:100470008083898190E063DF89818D30C1F410E051
:1004800000DF882349F0E2E0F0E0EC0FFD1FE10F10
:10049000F11D80831F5FF4CF1150E2E0F0E0EC0F1C
:1004A000FD1FE10FF11D1082CE01029688DFCF5BA8
:1004B000DF4F0FB6F894DEBF0FBECDBFDF91CF91F7
:1004C000FF91EF91BF91AF919F918F917F916F912C
:1004D0005F914F913F912F911F910F900FBE0F9001
:1004E0001F901895F8941FBA92BD81BD60BDFA9A0D
:1004F000F99AF999FECF78940895F89492BD81BD48
:10050000F89AF999FECF789480B50895811101C0C9
:100510008FEF90E00DC0E7EAF1E63197F1F700C008
:1005200000009F5F891720F41092C80180E00895B1
:100530002091C901222379F31092C90181E0089525
:10054000CF93C62F39DF50DF8C2FE0DFC82F30DF8D
:100550001092C801CC2329F02091D8013091D90103
:1005600002C021E031E0822F932FCF91089540E027
:10057000242F30E0FC01E20FF31F5081511109C01C
:10058000FB01E20FF31F81E09081992359F080E095
:100590000895FB01E20FF31F2081521302C04F5F49
:1005A000E7CF80E008958BE18093810082E0809323
:1005B00080000895E4E6F0E080818F7D808381E013
:1005C0008DDD0895CF92DF92EF92FF920F931F93EC
:1005D000CF93DF9300D0CDB7DEB77C01D62E1A8241
:1005E000198240E1BE016F5F7F4F81E0D0DD48E0BE
:1005F000BE016F5F7F4F80E0CADD0FE010E0C701F2
:10060000002E02C0959587950A94E2F7BE016F5FB0
:100610007F4F8170F3DD0150110988F707E010E08A
:10062000ED2CF12CC701002E02C0959587950A94F8
:10063000E2F7BE016F5F7F4F8170E0DD015011096D
:1006400088F707E010E0E094F094C701002E02C0A4
:10065000959587950A94E2F7BE016F5F7F4F817091
:10066000CDDD0150110988F741E0BE016F5F7F4F7A
:1006700081E08DDD41E0BE016F5F7F4F80E087DD6F
:1006800089819A818036910564F4FC01E659FC4F1A
:100690001082019680369105C1F780E690E09A833A
:1006A000898388DF81E08093CF01EEE6F0E08081EE
:1006B000826080830F900F90DF91CF911F910F91F7
:1006C000FF90EF90DF90CF900895E4E6F0E0808116
:1006D0008062808381E08093C00108951F920F9211
:1006E0000FB60F9211242F933F934F935F936F9305
:1006F0007F938F939F93AF93BF93EF93FF93E0E824
:10070000F0E0808181FFFDCF89E080938800E09157
:10071000D101F091D201E659FC4F808180FF07C0E2
:10072000E0E8F0E08081806880835F9A06C0E0E8BE
:10073000F0E080818F7780835F98E091D101F09124
:10074000D201E659FC4F8081869596E4899F802DE1
:10075000112487BD8091D1019091D201019690938F
:10076000D2018093D101E091D101F091D201E659FB
:10077000FC4F8081811112C0E0E8F0E080818F772A
:100780008083EEE6F0E080818D7F80831092D2013D
:100790001092D10129981092CF0197DFFF91EF912C
:1007A000BF91AF919F918F917F916F915F914F9189
:1007B0003F912F910F900FBE0F901F90189581E0E1
:1007C0008093BF0108951F920F920FB60F921124CC
:1007D0002F933F934F935F936F937F938F939F9349
:1007E000AF93BF93EF93FF938091D001882309F4D7
:1007F000A8C11092D0018091D601813408F4A1C122
:100800001092D6018091DC029091DD02893E9340E6
:100810000CF497C18091DC029091DD028A3B9440F8
:100820000CF08FC18091DE029091DF028B3E9140EF
:100830000CF487C18091DE029091DF0282369240F3
:100840000CF07FC18091E0029091E102C3970CF41B
:1008500078C18091E0029091E10280359105CCF061
:1008600070C1862F90E0FC01EE0FFF1FE652FD4F96
:1008700020813181233331050CF463C1FC01EE0F7B
:10088000FF1FE652FD4F80819181803591052CF04C
:1008900058C17FE063E041E050E0862F8F5F90E039
:1008A000FC01EE0FFF1FE652FD4F20813181233303
:1008B0003105F4F0FC01EE0FFF1FE652FD4F2081E1
:1008C000318120353105A4F42091D4013091D50136
:1008D000CA01072E02C0880F991F0A94E2F780957B
:1008E0009095822393239093D5018093D40125C0C2
:1008F000FC01EE0FFF1FE652FD4F208131812F3B9F
:100900003105DCF0FC01EE0FFF1FE652FD4F808148
:100910009181873D91058CF48091D4019091D5010E
:100920009A01072E02C0220F331F0A94E2F7822B8E
:10093000932B9093D5018093D4016E5F71507031E9
:1009400008F48FCF862F90E0FC01EE0FFF1FE652D8
:10095000FD4F20813181233331050CF4F2C0FC01BD
:10096000EE0FFF1FE652FD4F80819181803591058A
:10097000CCF0E7C0862F90E0FC01EE0FFF1FE6529F
:10098000FD4F20813181233331050CF4DAC0FC01A5
:10099000EE0FFF1FE652FD4F80819181803591055A
:1009A00024F0CFC077E041E050E0862F8F5F90E0E9
:1009B000FC01EE0FFF1FE652FD4F208131812333F2
:1009C0003105C4F0FC01EE0FFF1FE652FD4F208100
:1009D00031812035310574F42091D301CA01072EED
:1009E00002C0880F991F0A94E2F7809582238093B2
:1009F000D30120C0FC01EE0FFF1FE652FD4F208106
:100A000031812F3B3105B4F0FC01EE0FFF1FE652A0
:100A1000FD4F80819181873D910564F42091D30140
:100A2000CA01072E02C0880F991F0A94E2F7822B91
:100A30008093D3016E5F7150783008F49BCF862F7E
:100A400090E0FC01EE0FFF1FE652FD4F2081318147
:100A5000233331050CF475C0FC01EE0FFF1FE65285
:100A6000FD4F8081918180359105CCF06AC0862F41
:100A700090E0FC01EE0FFF1FE652FD4F2081318117
:100A8000233331050CF45DC0FC01EE0FFF1FE6526D
:100A9000FD4F80819181803591052CF052C077E027
:100AA000A0E041E050E0862F8F5F90E0FC01EE0F68
:100AB000FF1FE652FD4F2081318123333105A4F021
:100AC000FC01EE0FFF1FE652FD4F208131812035E2
:100AD000310554F4CA01072E02C0880F991F0A94E9
:100AE000E2F78095A8231CC0FC01EE0FFF1FE65221
:100AF000FD4F208131812F3B310594F0FC01EE0F39
:100B0000FF1FE652FD4F80819181873D910544F49E
:100B1000CA01072E02C0880F991F0A94E2F7A82B7A
:100B20006E5F7150783008F4A2CF8091D301A09508
:100B3000A81307C06091D3018091D4019091D50191
:100B40003EDEFF91EF91BF91AF919F918F917F9189
:100B50006F915F914F913F912F910F900FBE0F902A
:100B60001F9018950F931F93CF93DF938C01EB0188
:100B70008091CF01811138C016DD89E09DE3B80175
:100B8000C9D27093870060938600759567957093BE
:100B90008B0060938A0083EC99E00197F1F700C025
:100BA0000000E0E8F0E0808180628083E3ECF9E01F
:100BB0003197F1F700C00000F894209769F0BE016A
:100BC00080E090E0E9EFF0E03197F1F700C000003D
:100BD000019686179707B1F77894E0E8F0E08081F6
:100BE0008F7D808380E07ADADF91CF911F910F9122
:100BF0000895CF93DF936AE086E091E0A1DCEC01F9
:100C0000DBDB81E09881911101C080E0DF91CF9121
:100C10000895EFDF81110BC089E091E0CDDB2C9AC4
:100C200089EF90E00197F1F700C000002C98109236
:100C3000C2010895DEDF882319F08EE091E0BCDB6D
:100C40001092C3010895CF92DF92EF92FF920F931B
:100C50001F93CF93DF93CDB7DEB7C155D1090FB640
:100C6000F894DEBF0FBECDBF64E683E191E068DC9F
:100C70008C01A2DB6CE171E0C80179DC8823D9F139
:100C800064E68FE191E05CDC8C0165E271E06FDC91
:100C9000882339F189E291E08FDB64E68CE391E00F
:100CA0004FDCBC01CE01819684D364E684E591E0FB
:100CB00047DCBC01CE0101967CD340E150E0BE018F
:100CC0006F5B7F4FCE0181965BD26B017C0140E16F
:100CD00050E0BE016F5B7F4FCE01019651D2C6013D
:100CE00071DC63E671E0C80142DC882321F064E92D
:100CF00087EC91E267DC65E671E0C80138DC8823A7
:100D000009F470C08BE691E057DB8091BD019091B2
:100D1000BE0140E150E0BE016F5A7F4F51D34CDB22
:100D20008091BC0140E150E0BE016F5A7F4F90E0DE
:100D300047D342DB83E08DBB8EE791E03DDB8091C2
:100D4000BF018823E1F31DBA1092BF0180E991E051
:100D500033DB8091D4019091D50140E150E0BE0198
:100D60006F5A7F4F2DD328DB8091D30140E150E0B3
:100D7000BE016F5A7F4F90E023D31EDB64E689E902
:100D800091E0DEDB66EA71E0F2DB882359F18091C5
:100D9000D4019091D5019093BE018093BD018091C3
:100DA000D3018093BC016091BD017091BE0181E0CF
:100DB00090E098DB6091BD017091BE01672F770FC5
:100DC000770B82E090E08EDB6091BC0183E090E0E5
:100DD00089DB87EA91E60197F1F700C0000088EA15
:100DE00091E0EADA80EB91E0E7DACF5ADF4F0FB615
:100DF000F894DEBF0FBECDBFDF91CF911F910F9151
:100E0000FF90EF90DF90CF9008951F920F920FB652
:100E10000F9211242F933F938F939F93EF93FF9300
:100E200080910001982F9F5F90930001811150C025
:100E3000EAE7F0E0808180648083808186FF09C0DA
:100E400083EC99E00197F1F700C00000808186FDF6
:100E5000F7CF8091C6019091C701892B41F4809111
:100E60007800909179009093C7018093C60180919A
:100E70007800909179009093C5018093C40180918E
:100E8000C4019091C5012091C6013091C701821B18
:100E9000930B8B3A910524F081E08093C20110C03E
:100EA0008091C4019091C5012091C6013091C70184
:100EB000821B930B86359F4F1CF481E08093C30106
:100EC00080917800909179009093C7018093C6013A
:100ED000FF91EF919F918F913F912F910F900FBEB6
:100EE0000F901F90189518951F920F920FB60F92A2
:100EF00011248F9381E08093C1018F910F900FBED9
:100F00000F901F9018951F920F920FB60F921124F9
:100F10002F933F934F935F936F937F938F939F9301
:100F2000AF93BF93EF93FF938BB180588BB964E17C
:100F300070E088EB91E016DEFF91EF91BF91AF91E9
:100F40009F918F917F916F915F914F913F912F91E1
:100F50000F900FBE0F901F901895CF93DF931F92A5
:100F6000CDB7DEB78FEF8AB91BB89EEF97B918B827
:100F700084B915B81092B00087E08093B100E0E723
:100F8000F0E010828081816080831092B20084E85A
:100F900080937A0010927C0083EC99E00197F1F73E
:100FA00000C0000080E09AD8E3ECF9E03197F1F757
:100FB00000C0000068E070E080EC92E138D95298FF
:100FC00053985B9A8DE08093690083E08DBB81E04C
:100FD00090E093DA182F82E090E08FDA382F20E04B
:100FE000212B3093BE012093BD0183E090E085DA90
:100FF0008093BC01789485EB91E0DED983B7817F43
:10100000866083BFE4E6F0E0808180688083808131
:10101000846080838081806280838081816080831E
:1010200000E710E00F2EF3E0FF2EF02D3BD98823D0
:10103000E9F38091D0018111FCCF87EA91E6019715
:10104000F1F700C000008091C2018111E2DD8091C2
:10105000C3018111EFDD8091C001882311F080E090
:101060003DD88091BF01882369F11092BF01209182
:10107000D4013091D5018091BD019091BE01281716
:10108000390741F49091D3018091BC01981302C0BB
:10109000C0DD18C089EB91E08FD98091D401909187
:1010A000D50140E150E0BE016F5F7F4F89D184D907
:1010B0008091D30140E150E0BE016F5F7F4F90E02F
:1010C0007FD17AD98091C101882369F0F8018081AC
:1010D0008E7F80831DBAB7DD1092C101F801808137
:1010E00081608083FDBADED88823E9F38091D00146
:1010F0008111FCCF87EA91E60197F1F700C000006B
:101100005F9883B7816083BF889583B78E7F83BFE5
:101110005F9A8CCFAA1BBB1B51E107C0AA1FBB1F44
:10112000A617B70710F0A61BB70B881F991F5A9573
:10113000A9F780959095BC01CD010895A1E21A2EE2
:10114000AA1BBB1BFD010DC0AA1FBB1FEE1FFF1F6B
:10115000A217B307E407F50720F0A21BB30BE40BBB
:10116000F50B661F771F881F991F1A9469F7609502
:101170007095809590959B01AC01BD01CF010895BC
:10118000A0E0B0E0E5ECF8E068C15B01EA016115C0
:10119000710519F0FB0180839183209739F09E013E
:1011A000225031092332310508F0E3C07C01F701F8
:1011B00091907F018F01892D90E0F3D0892BB9F7B1
:1011C000FDE29F1206C0F70191908F01882483945D
:1011D00007C0FBE29F1203C0F70191908F01812CA1
:1011E000209709F4D4C0C031D10581F4CCC0F801F6
:1011F0008081883719F0883509F0BFC0F8019180E7
:101200000E5F1F4FF2E08F2AC0E1D0E0C830D10559
:10121000D9F024F4C230D105F9F407C0CA30D105A1
:1012200051F0C031D105C1F424C0C12CD12CE12C26
:1012300040E4F42E23C0CAE0D0E03CECC32EDC2C0A
:10124000EC2C3CE0F32E1AC0C8E0D0E0C12CD12C2D
:10125000E12C20E1F22E12C09E01442737FD40957B
:10126000542F60E070E080E090E868DF69017A0167
:1012700005C0C12CD12CE12C98E0F92E40E060E0B3
:1012800070E0CB012E01662457FC6094762CE92D8A
:10129000E053EA3060F0292D21542A3110F4E75050
:1012A00006C0292D21562A3120F5E92DE7552E2F8C
:1012B00030E02C173D07ECF447FD17C0C616D706E3
:1012C000E806F90678F09B01AC01C301B201AAD08F
:1012D0006E0F711D811D911D61307105810520E822
:1012E000920710F04FEF01C041E0F80191908F019B
:1012F000CECFA114B10481F0442331F00150110983
:10130000F5011183008308C081FE1AC00250110943
:10131000F5011183008314C047FF12C080FE05C091
:1013200060E070E080E090E804C06FEF7FEF8FEF47
:101330009FE722E230E03093DB042093DA0416C00A
:1013400080FE08C090958095709561957F4F8F4F76
:101350009F4F0CC097FF0AC082E290E09093DB049D
:101360008093DA046FEF7FEF8FEF9FE78B019C0193
:1013700012C000E010E098010EC080E3982E209784
:1013800009F462CF43CFF0E39F1240CF30CF20E388
:10139000921251CF2CCFB801C901CDB7DEB7E0E131
:1013A00078C091112CC0803219F089508550D0F747
:1013B0000895FB01DC0101900D920020E1F70895F2
:1013C000FB019F01E8944230BCF04532ACF44A3056
:1013D00029F497FB1EF4909581959F4F642F7727F2
:1013E00099DE805D8A330CF0895D8193CB01009793
:1013F000A9F716F45DE251931082C90103C0992741
:1014000088270895DC01FC01672F71917723E1F7AC
:10141000329704C07C916D9370836291AE17BF07C1
:10142000C8F30895DB018F939F930BD0BF91AF91C9
:10143000A29F800D911DA39F900DB29F900D11242E
:10144000089540D0A59F900DB49F900DA49F800D4E
:10145000911D112408952F923F924F925F926F92A7
:101460007F928F929F92AF92BF92CF92DF92EF9234
:10147000FF920F931F93CF93DF93CDB7DEB7CA1BB5
:10148000DB0B0FB6F894DEBF0FBECDBF09942A88E0
:10149000398848885F846E847D848C849B84AA8488
:1014A000B984C884DF80EE80FD800C811B81AA8115
:1014B000B981CE0FD11D0FB6F894DEBF0FBECDBFE0
:1014C000ED010895A29FB001B39FC001A39F01D079
:1014D000B29F700D811D1124911D0895F894FFCFC6
:1014E0000100000D0A00413F0057616B6500486133
:1014F0006C7400436F6D6D616E643F0069720054DF
:101500007970653F006E6563004461746120696EA7
:10151000204E454320666F726D617400437573748D
:101520006F6D657220636F64653F28426173653A31
:1015300031362900446174613F28426173653A3154
:101540003629003000706F776572004375727265DE
:101550006E742053657474696E67206973005761F7
:101560006974696E6720666F722049522E2E2E00B4
:101570005265636569766564004170706C793F20DF
:1015800028792F4E290079005772697474656E00AE
:0C15900045786974004156520049520031
:00000001FF
