S00D000072617370692E73726563F8
S113000019C012C71BC731C030C02FC02EC02DC0AD
S11300102CC09CC62BC0B1C328C027C039C325C07F
S113002024C023C0D2C121C058C11FC01EC01DC0DE
S11300301CC01BC011241FBECFEFD4E0DEBFCDBF58
S113004011E0A0E0B1E0E0EDF3E102C005900D9213
S1130050A23DB107D9F724E0A2EDB1E001C01D92A1
S1130060A23FB207E1F7F9D6B1C9CACF1F920F92E6
S11300700FB60F9211242F938F939F93EF93FF93B7
S11300808091E501811120C081E08093E601E1E8DF
S1130090F0E0908180E489278083809186009091AC
S11300A087001092850010928400009769F02091D7
S11300B0EC01E22FF0E0EE0FFF1FE051FD4F9183C2
S11300C080832F5F2093EC01FF91EF919F918F919B
S11300D02F910F900FBE0F901F9018959091E601ED
S11300E02091E501922B09F051C092E094BD95BD99
S11300F096E497BD219A2998882381F18091E6019D
S1130100811144C0E4E6F0E08081886080838081CE
S1130110877F8083E2E8F0E08081806880831092AA
S11301206F00E0E8F0E01082A1E8B0E01C9282E009
S1130130808389E18C938AE190E090938700809397
S113014086008AE18093880080818068808387EAC2
S113015091E60197F1F700C0000008958091E50150
S1130160811114C0109280008AE8809381008FEF7F
S11301709FE1909389008093880082E280936F00CE
S1130180E2E8F0E080818068808320980895FB0194
S1130190443068F05BEA459F512D11245695952F04
S11301A0990F950F491B8170511106C016C041115A
S11301B023C0208131811DC090E0682F6660A0813A
S11301C0B181A058BC4F6C93208131812F5F3F4F88
S11301D0318320839F5F9513F2CF20813181440FB7
S11301E0842BD901A058BC4F8C932F5F3F4F318390
S11301F02083822F932F08958170EFCFCF93DF93C5
S1130200EB01882341F041E081E0C1DF43E0BE011E
S113021080E0BDDF07C041E081E0B9DF41E0BE011D
S113022080E0B5DF88819981DF91CF910895CF93E4
S1130230DF939C01EB01BC0176956795CB01A0E0AF
S1130240B0E0BC01CD016C5D7B408F4F9F4F40E01F
S113025050E0ECD6215031093093C5002093C400FE
S113026088ED8093C100C530D10531F0289731F471
S113027086E08093C20002C01092C200DF91CF9149
S113028008959091E3018091E401981748F4E92FCF
S1130290F0E0E051FC4F80819F5F9093E30108956B
S11302A080E008959091E10181E02091E201291319
S11302B080E008958091E1019091E201981761F046
S11302C08091E101E82FF0E0E051FE4F908190939E
S11302D0C6008F5F8093E10108951F920F920FB6BD
S11302E00F9211242F933F934F935F936F937F93B8
S11302F08F939F93AF93BF93EF93FF93DBDFFF91B4
S1130300EF91BF91AF919F918F917F916F915F9189
S11303104F913F912F910F900FBE0F901F90189502
S11303209091E201692F70E0AB014F5F5F4F552759
S11303302091E10130E042175307D1F3FB01E05172
S1130340FE4F80839F5F9093E2018091C00085FD02
S1130350B1DF0895CF93DF93EC018881882331F0D6
S1130360219690E0DDDF89918111FBCFDF91CF9160
S1130370089583E091E0EEDF0895FBDF1092E00141
S11303800895E8DFF6DF08959093EF018093EE017E
S11303902091DE01222321F081E08093DF01089582
S11303A025E031E0FC012083089581E08093DE01A3
S11303B00895DFDFFADF81E08093E001089584325D
S11303C019F481E08093D70108951F920F920FB61C
S11303D00F9211241F932F933F934F935F936F9327
S11303E07F938F939F93AF93BF93EF93FF93CF9399
S11303F0DF93CDB7DEB7C154D109DEBFCDBF809145
S1130400C60089838981DBDF8091E0018823A1F123
S11304108981883041F48091E401E82FF0E0815033
S11304208093E40107C08091E401E82FF0E08F5F3E
S11304308093E4018981E051FC4F8083898190E0BD
S11304406FDF89818D30C1F410E01BDF882349F010
S1130450E2E0F0E0EC0FFD1FE10FF11D80831F5F70
S1130460F4CF1150E2E0F0E0EC0FFD1FE10FF11DBD
S11304701082CE01029688DFCF5BDF4F0FB6F8946F
S1130480DEBF0FBECDBFDF91CF91FF91EF91BF9142
S1130490AF919F918F917F916F915F914F913F9118
S11304A02F911F910F900FBE0F901F901895F999DF
S11304B0FECF1FBA92BD81BD60BDFA9AF99A089524
S11304C0F999FECF92BD81BDF89A80B50895811146
S11304D001C08FEF90E00DC0E7EAF1E63197F1F744
S11304E000C000009F5F891720F41092DE0180E0B5
S11304F008952091DF01222379F31092DF0181E036
S11305000895CF93C62F3DDF54DF8C2FE0DFC82F33
S113051034DF1092DE01CC2329F02091EE013091DA
S1130520EF0102C021E031E0822F932FCF91089593
S113053040E0242F30E0FC01E20FF31F5081511101
S113054009C0FB01E20FF31F81E09081992359F068
S113055080E00895FB01E20FF31F2081521302C0D3
S11305604F5FE7CF80E00895E4E6F0E080818F7D7F
S1130570808381E0B3DD0895CF92DF92EF92FF9202
S11305800F931F93CF93DF9300D0CDB7DEB77C01D9
S1130590D62E1A82198240E1BE016F5F7F4F81E03F
S11305A0F6DD48E0BE016F5F7F4F80E0F0DD0FE0D5
S11305B010E0C701002E02C0959587950A94E2F7D2
S11305C0BE016F5F7F4F817019DE0150110988F7FA
S11305D007E010E0ED2CF12CC701002E02C0959528
S11305E087950A94E2F7BE016F5F7F4F817006DE44
S11305F00150110988F707E010E0E094F094C70176
S1130600002E02C0959587950A94E2F7BE016F5FAC
S11306107F4F8170F3DD0150110988F741E0BE017D
S11306206F5F7F4F81E0B3DD41E0BE016F5F7F4FBD
S113063080E0ADDD89819A818036910564F4FC0106
S1130640E058FC4F1082019680369105C1F780E690
S113065090E09A83898388DF81E08093E501EEE668
S1130660F0E08081826080830F900F90DF91CF91C2
S11306701F910F91FF90EF90DF90CF900895E4E6E3
S1130680F0E080818062808381E08093D6010895C8
S11306901F920F920FB60F9211242F933F934F93F3
S11306A05F936F937F938F939F93AF93BF93EF93D6
S11306B0FF93E0E8F0E0808181FFFDCF89E0809343
S11306C08800E091E701F091E801E058FC4F808157
S11306D080FF07C0E0E8F0E08081806880835F9A53
S11306E006C0E0E8F0E080818F7780835F98E09136
S11306F0E701F091E801E058FC4F8081869596E48B
S1130700899F802D112487BD8091E7019091E80194
S113071001969093E8018093E701E091E701F0915D
S1130720E801E058FC4F8081811112C0E0E8F0E05C
S113073080818F778083EEE6F0E080818D7F8083F7
S11307401092E8011092E70129981092E50197DFD1
S1130750FF91EF91BF91AF919F918F917F916F9195
S11307605F914F913F912F910F900FBE0F901F906B
S1130770189581E08093D50108951F920F920FB6CA
S11307800F9211242F933F934F935F936F937F9313
S11307908F939F93AF93BF93EF93FF938091E60161
S11307A0882309F4A9C11092E6018091EC018134F7
S11307B008F4A2C11092EC018091F2029091F3022C
S11307C0833494400CF498C18091F2029091F30226
S11307D08A3B94400CF090C18091F4029091F50210
S11307E08B3E91400CF488C18091F4029091F50203
S11307F0823692400CF080C18091F6029091F7020B
S1130800C3970CF479C18091F6029091F702803578
S11308109105CCF071C1862F90E0FC01EE0FFF1F13
S1130820E051FD4F20813181233331050CF464C143
S1130830FC01EE0FFF1FE051FD4F80819181803557
S113084091052CF059C17FE063E041E050E0862F30
S11308508F5F90E0FC01EE0FFF1FE051FD4F208100
S1130860318123333105F4F0FC01EE0FFF1FE05119
S1130870FD4F2081318120353105A4F42091EA0116
S11308803091EB01CA01072E02C0880F991F0A9408
S1130890E2F780959095822393239093EB018093C4
S11308A0EA0125C0FC01EE0FFF1FE051FD4F20813E
S11308B031812F3B3105DCF0FC01EE0FFF1FE051CD
S11308C0FD4F80819181873D91058CF48091EA01EF
S11308D09091EB019A01072E02C0220F331F0A9454
S11308E0E2F7822B932B9093EB018093EA016E5FE6
S11308F07150703108F48FCF862F90E0FC01EE0F19
S1130900FF1FE051FD4F20813181233331050CF469
S1130910F3C0FC01EE0FFF1FE051FD4F8081918178
S113092080359105CCF0E8C0862F90E0FC01EE0FF5
S1130930FF1FE051FD4F20813181233331050CF439
S1130940DBC0FC01EE0FFF1FE051FD4F8081918160
S11309508035910524F0D0C077E041E050E0862F47
S11309608F5F90E0FC01EE0FFF1FE051FD4F2081EF
S1130970318123333105C4F0FC01EE0FFF1FE05138
S1130980FD4F208131812035310574F42091E90136
S1130990CA01072E02C0880F991F0A94E2F78095B6
S11309A082238093E90120C0FC01EE0FFF1FE05178
S11309B0FD4F208131812F3B3105B4F0FC01EE0F56
S11309C0FF1FE051FD4F80819181873D910564F4C3
S11309D02091E901CA01072E02C0880F991F0A94C9
S11309E0E2F7822B8093E9016E5F7150783008F44E
S11309F09BCF862F90E0FC01EE0FFF1FE051FD4FCF
S1130A0020813181233331050CF476C0FC01EE0FD3
S1130A10FF1FE051FD4F8081918180359105CCF01D
S1130A206BC0862F90E0FC01EE0FFF1FE051FD4FDD
S1130A3020813181233331050CF45EC0FC01EE0FBB
S1130A40FF1FE051FD4F80819181803591052CF08D
S1130A5053C077E0A0E041E050E0862F8F5F90E044
S1130A60FC01EE0FFF1FE051FD4F20813181233344
S1130A703105A4F0FC01EE0FFF1FE051FD4F208172
S1130A8031812035310554F4CA01072E02C0880F84
S1130A90991F0A94E2F78095A8231CC0FC01EE0F6D
S1130AA0FF1FE051FD4F208131812F3B310594F030
S1130AB0FC01EE0FFF1FE051FD4F80819181873DC6
S1130AC0910544F4CA01072E02C0880F991F0A94A5
S1130AD0E2F7A82B6E5F7150783008F4A2CF8091B2
S1130AE0E901A095A81308C06091E9018091EA0189
S1130AF09091EB0170E03DDEFF91EF91BF91AF91DA
S1130B009F918F917F916F915F914F913F912F9121
S1130B100F900FBE0F901F901895CF93DF936AE04C
S1130B2086E091E0EEDCEC012CDC81E0988191110F
S1130B3001C080E0DF91CF910895EFDF81110BC0F8
S1130B4089E091E01EDC2C9A89EF90E00197F1F79F
S1130B5000C000002C981092D8010895DEDF88238D
S1130B6019F08EE091E00DDC1092D9010895CF9236
S1130B70DF92EF92FF920F931F93CF93DF93CDB742
S1130B80DEB7C155D1090FB6F894DEBF0FBECDBF95
S1130B9064E683E191E0B5DC8C01F3DB6CE171E0A8
S1130BA0C801C6DC8823D9F164E68FE191E0A9DCB1
S1130BB08C0165E271E0BCDC882339F189E291E0C3
S1130BC0E0DB64E68CE391E09CDCBC01CE01819621
S1130BD068D364E684E591E094DCBC01CE0101961F
S1130BE060D340E150E0BE016F5B7F4FCE01819640
S1130BF03FD26B017C0140E150E0BE016F5B7F4F4F
S1130C00CE01019635D2C601B7DC63E671E0C801B6
S1130C108FDC882321F064E987EC91E2ADDC65E6A2
S1130C2071E0C80185DC882309F47DC08BE691E07E
S1130C30A8DB8EE791E08EDB8091D3019091D40103
S1130C4040E150E0BE016F5A7F4F32D39ADB8EE70A
S1130C5091E080DB8091D20140E150E0BE016F5A07
S1130C607F4F90E025D38DDB83E08DBB81E891E05D
S1130C7088DB8091D5018823E1F31DBA83E991E0F3
S1130C8080DB8EE791E066DB8091EA019091EB01D5
S1130C9040E150E0BE016F5A7F4F0AD372DB8EE70A
S1130CA091E058DB8091E90140E150E0BE016F5AC8
S1130CB07F4F90E0FDD265DB64E68FE991E021DCB3
S1130CC06CEB71E035DC882371F18091EA0190913D
S1130CD0EB019093D4018093D3018091E901809337
S1130CE0D2016091EA017091EB0181E090E0DFDBD9
S1130CF06091EA017091EB01672F770F770B82E027
S1130D0090E0D5DB6091E90183E090E0D0DB2FE354
S1130D108DE093E0215080409040E1F700C0000056
S1130D208EEB91E02EDB86EC91E02BDBCF5ADF4F8C
S1130D300FB6F894DEBF0FBECDBFDF91CF911F91E8
S1130D400F91FF90EF90DF90CF9008951F920F9234
S1130D500FB60F9211242F933F938F939F93EF938A
S1130D60FF9380910001982F9F5F90930001811160
S1130D7050C0EAE7F0E0808180648083808186FF50
S1130D8009C083EC99E00197F1F700C0000080816D
S1130D9086FDF7CF8091DC019091DD01892B41F430
S1130DA080917800909179009093DD018093DC012B
S1130DB080917800909179009093DB018093DA011F
S1130DC08091DA019091DB012091DC013091DD0109
S1130DD0821B930B8B3A910524F081E08093D80118
S1130DE010C08091DA019091DB012091DC013091F7
S1130DF0DD01821B930B86359F4F1CF481E08093A9
S1130E00D90180917800909179009093DD018093CD
S1130E10DC01FF91EF919F918F913F912F910F9062
S1130E200FBE0F901F9018951F920F920FB60F923E
S1130E3011240F900FBE0F901F9018951F920F92C0
S1130E400FB60F9211248F9381E08093D7018F9175
S1130E500F900FBE0F901F901895CF93DF931F92A2
S1130E60CDB7DEB78FEF8AB91BB89EEF97B918B824
S1130E7084B915B81092B00087E08093B100E0E720
S1130E80F0E0108280818160808384E880937A001E
S1130E9010927C0083EC99E00197F1F700C0000008
S1130EA080E01CD9E3ECF9E03197F1F700C00000D1
S1130EB068E070E080EC92E1BAD98EE0809369003A
S1130EC083E08DBB5298539881E090E0F9DA182FB3
S1130ED082E090E0F5DA382F20E0212B3093D40122
S1130EE02093D30183E090E0EBDA8093E9017894D6
S1130EF08BEC91E046DA83B7817F866083BFE4E6BA
S1130F00F0E0808180688083808184608083808138
S1130F108062808300EC10E00F2EF0E7EF2EF12CBE
S1130F20F02D0F2EF3E0DF2EF02DBCD98823E9F34A
S1130F30F801808185FFFCCF8091E6018111FCCF0F
S1130F4089EF90E00197F1F700C000008091D8018B
S1130F508111F3DD8091D901811100DE8091D601E8
S1130F60882311F080E0BAD88091D501882301F15B
S1130F701092D5018FEC91E004DA8EE791E0EAD982
S1130F808091EA019091EB0140E150E0BE016F5F76
S1130F907F4F8ED1F6D98EE791E0DCD98091E901BB
S1130FA040E150E0BE016F5F7F4F90E081D1E9D90D
S1130FB08091D701882369F0F70180818D7F808338
S1130FC01DBAD5DD1092D701F7018081826080833C
S1130FD0DDBA68D98823E9F3F801808185FFFCCF65
S1130FE08091E6018111FCCF89EF90E00197F1F740
S1130FF000C0000083B7816083BF889583B78E7F6C
S113100083BF93CFAA1BBB1B51E107C0AA1FBB1F01
S1131010A617B70710F0A61BB70B881F991F5A9580
S1131020A9F780959095BC01CD010895A1E21A2EEF
S1131030AA1BBB1BFD010DC0AA1FBB1FEE1FFF1F78
S1131040A217B307E407F50720F0A21BB30BE40BC8
S1131050F50B661F771F881F991F1A9469F760950F
S11310607095809590959B01AC01BD01CF010895C9
S1131070A0E0B0E0EDE3F8E068C15B01EA016115CE
S1131080710519F0FB0180839183209739F09E014B
S1131090225031092332310508F0E3C07C01F70105
S11310A091907F018F01892D90E0F3D0892BB9F7BE
S11310B0FDE29F1206C0F70191908F01882483946A
S11310C007C0FBE29F1203C0F70191908F01812CAE
S11310D0209709F4D4C0C031D10581F4CCC0F80103
S11310E08081883719F0883509F0BFC0F8019180F4
S11310F00E5F1F4FF2E08F2AC0E1D0E0C830D10567
S1131100D9F024F4C230D105F9F407C0CA30D105AE
S113111051F0C031D105C1F424C0C12CD12CE12C33
S113112040E4F42E23C0CAE0D0E03CECC32EDC2C17
S1131130EC2C3CE0F32E1AC0C8E0D0E0C12CD12C3A
S1131140E12C20E1F22E12C09E01442737FD409588
S1131150542F60E070E080E090E868DF69017A0174
S113116005C0C12CD12CE12C98E0F92E40E060E0C0
S113117070E0CB012E01662457FC6094762CE92D97
S1131180E053EA3060F0292D21542A3110F4E7505D
S113119006C0292D21562A3120F5E92DE7552E2F99
S11311A030E02C173D07ECF447FD17C0C616D706F0
S11311B0E806F90678F09B01AC01C301B201AAD09C
S11311C06E0F711D811D911D61307105810520E82F
S11311D0920710F04FEF01C041E0F80191908F01A8
S11311E0CECFA114B10481F0442331F00150110990
S11311F0F5011183008308C081FE1AC00250110951
S1131200F5011183008314C047FF12C080FE05C09E
S113121060E070E080E090E804C06FEF7FEF8FEF54
S11312209FE722E230E03093F1042093F00416C0EB
S113123080FE08C090958095709561957F4F8F4F83
S11312409F4F0CC097FF0AC082E290E09093F10494
S11312508093F0046FEF7FEF8FEF9FE78B019C018A
S113126012C000E010E098010EC080E3982E209791
S113127009F462CF43CFF0E39F1240CF30CF20E395
S1131280921251CF2CCFB801C901CDB7DEB7E0E13E
S113129078C091112CC0803219F089508550D0F754
S11312A00895FB01DC0101900D920020E1F70895FF
S11312B0FB019F01E8944230BCF04532ACF44A3063
S11312C029F497FB1EF4909581959F4F642F7727FF
S11312D099DE805D8A330CF0895D8193CB010097A0
S11312E0A9F716F45DE251931082C90103C099274E
S11312F088270895DC01FC01672F71917723E1F7BA
S1131300329704C07C916D9370836291AE17BF07CE
S1131310C8F30895DB018F939F930BD0BF91AF91D6
S1131320A29F800D911DA39F900DB29F900D11243B
S1131330089540D0A59F900DB49F900DA49F800D5B
S1131340911D112408952F923F924F925F926F92B4
S11313507F928F929F92AF92BF92CF92DF92EF9241
S1131360FF920F931F93CF93DF93CDB7DEB7CA1BC2
S1131370DB0B0FB6F894DEBF0FBECDBF09942A88ED
S1131380398848885F846E847D848C849B84AA8495
S1131390B984C884DF80EE80FD800C811B81AA8122
S11313A0B981CE0FD11D0FB6F894DEBF0FBECDBFED
S11313B0ED010895A29FB001B39FC001A39F01D086
S11313C0B29F700D811D1124911D0895F894FFCFD3
S11313D00100000D0A00413F0057616B6500486140
S11313E06C7400436F6D6D616E643F0069720054EC
S11313F07970653F006E6563004461746120696EB5
S1131400204E454320666F726D617400437573749A
S11314106F6D657220636F64653F28426173653A3E
S113142031362900446174613F28426173653A3161
S11314303629003000706F776572004375727265EB
S11314406E742053657474696E6720697300307814
S11314500057616974696E6720666F722049522E65
S11314602E2E0049522052656365697665640041F9
S1131470726520796F75207375726520746F2061B1
S113148070706C793F2028792F4E290079005772AB
S1131490697474656E004578697400415652004958
S10514A05200F4
S9030000FC
