:1000000019C033C032C031C030C02FC02EC01BC396
:100010002CC02BC02AC029C028C027C06DC225C053
:1000200024C023C024C121C0A9C01FC01EC01DC040
:100030001CC01BC011241FBECFEFD4E0DEBFCDBF5C
:1000400011E0A0E0B1E0E0E0F8E002C005900D9220
:10005000AA3AB107D9F724E0AAEAB1E001C01D929B
:10006000A836B207E1F75DD3C9C3CACF82E084BD29
:1000700085BD96E497BD219A29988093800089E1F7
:10008000809381008AE190E09093870080938600BE
:1000900089E08093880008958823A1F0FB01E25451
:1000A000FD4F81E08083FB01E154FD4F1082FB0195
:1000B000E054FD4F1082FB01EF53FD4F10826C5F47
:1000C0007F4F0BC0FB01E254FD4F81E08083FB01B9
:1000D000E154FD4F10826E5F7F4F862F972F08955A
:1000E000CF93DF939C01EB01BC0176956795CB0123
:1000F000A0E0B0E0BC01CD016C5D7B408F4F9F4F15
:1001000040E050E059D3215031093093C50020938D
:10011000C40088ED8093C100C530D10531F0289727
:1001200031F486E08093C20002C01092C200DF91D9
:10013000CF9108959091B6018091B701981748F436
:10014000E92FF0E0E859FC4F80819F5F9093B60162
:10015000089580E008958091B4019091B5019817B9
:1001600061F08091B401E82FF0E0E254FE4F9081FD
:100170009093C6008F5F8093B40108951F920F92F1
:100180000FB60F9211242F933F934F935F936F936A
:100190007F938F939F93AF93BF93EF93FF93DBDF97
:1001A000FF91EF91BF91AF919F918F917F916F914F
:1001B0005F914F913F912F910F900FBE0F901F9025
:1001C00018959091B501692F70E0AB014F5F5F4FBB
:1001D00055272091B40130E042175307D1F3FB01BA
:1001E000E254FE4F80839F5F9093B5018091C000E1
:1001F00085FDB1DF0895CF93DF93EC0188818823DB
:1002000031F0219690E0DDDF89918111FBCFDF9104
:10021000CF91089583E091E0EEDF0895FBDF109227
:10022000B3010895CF93DF93EC01F4DFCE01E3DF58
:10023000DF91CF9108959093BD018093BC0180918F
:10024000B101882319F081E08093B201089581E023
:100250008093B1010895DEDFFADF81E08093B3017E
:100260000895843219F481E08093AA0108951F92C1
:100270000F920FB60F9211241F932F933F934F931A
:100280005F936F937F938F939F93AF93BF93EF93FE
:10029000FF93CF93DF93CDB7DEB7C150D140DEBF20
:1002A000CDBF8091C60089838981DBDF8091B30156
:1002B0008823A1F18981883041F48091B701E82F2A
:1002C000F0E081508093B70107C08091B701E82F1B
:1002D000F0E08F5F8093B7018981E859FC4F8083FC
:1002E000898190E06EDF89818D30C1F410E022DFDA
:1002F000882349F0E2E0F0E0EC0FFD1FE10FF11D73
:1003000080831F5FF4CF1150E2E0F0E0EC0FFD1F9F
:10031000E10FF11D1082CE0102968DDFCF5FDE4F1F
:100320000FB6F894DEBF0FBECDBFDF91CF91FF9126
:10033000EF91BF91AF919F918F917F916F915F915D
:100340004F913F912F911F910F900FBE0F901F90D3
:100350001895811101C08FEF90E00DC0E7EAF1E63A
:100360003197F1F700C000009F5F891720F41092C9
:10037000B10180E008952091B201222379F3109217
:10038000B20181E00895CF93C62F4CDF64DF8C2F3C
:10039000E0DFC82F43DF1092B101CC2329F0209178
:1003A000BC013091BD0102C021E031E0822F932FCA
:1003B000CF91089540E0242F30E0FC01E20FF31FBD
:1003C0005081511109C0FB01E20FF31F81E09081C0
:1003D000992359F080E00895FB01E20FF31F20817B
:1003E000521302C04F5FE7CF80E008958BE1809306
:1003F000810082E08093800008952A9A2B9836DE4F
:100400000895EF92FF920F931F93CF93DF938C0188
:10041000F62E20E030E081E0F901E254FD4F8083C8
:100420002F5F3F4F20313105B9F71092CE02109265
:10043000CF021092D0021092D1021092D2021092EA
:10044000D3021092D4021092D502CFE0D0E068E13E
:1004500070E0C8010C2E02C0959587950A94E2F7CA
:1004600081701ADEBC012197A0F7C7E0D0E00F2D04
:1004700010E07801C8010C2E02C0959587950A946A
:10048000E2F7817009DEBC01219798F7C7E0D0E060
:10049000E094F094C7010C2E02C0959587950A94BC
:1004A000E2F78170F9DDBC012197A0F7FB01E2546E
:1004B000FD4F81E08083CB0101968A39910544F498
:1004C000FC01E254FD4F108201968A399105C1F773
:1004D00081E08093B80191DFEEE6F0E080818260F8
:1004E0008083DF91CF911F910F91FF90EF9008953E
:1004F0002A982B9A7BDF08951F920F920FB60F92C6
:1005000011242F933F934F935F936F937F938F9318
:100510009F93AF93BF93EF93FF93E091B901F09155
:10052000BA01E254FD4F8081882331F0E0E8F0E029
:1005300080818068808305C0E0E8F0E080818F776B
:1005400080838091B9019091BA0101969093BA018C
:100550008093B9018091B9019091BA0189399105CF
:1005600094F0E0E8F0E080818F778083EEE6F0E0C1
:1005700080818D7F80831092BA011092B9012998F1
:100580001092B801B5DFFF91EF91BF91AF919F91AC
:100590008F917F916F915F914F913F912F910F902C
:1005A0000FBE0F901F901895CF93DF936AE086E0FF
:1005B00091E0E9DEEC0136DE81E09881911101C025
:1005C00080E0DF91CF910895EFDF811104C08EE0CC
:1005D00091E028DE03C08AE191E024DE1092AB01B5
:1005E0000895E2DF882321F083E391E01BDE03C05E
:1005F00083E491E017DE1092AC01089564E68DE586
:1006000091E0C1DE66E671E0D5DE8823C1F064E6E4
:1006100089E691E0B8DE6FE671E0CCDE882379F000
:1006200083E791E0FFDD64E686E891E0ACDE64E616
:1006300085E991E0A8DE64E987EC91E2E2DE8BE9EE
:1006400091E0F0DD08951F920F920FB60F921124E2
:100650002F933F938F939F93EF93FF93809100018C
:10066000982F9F5F90930001811150C0EAE7F0E05E
:10067000808180648083808186FF09C083EC99E05B
:100680000197F1F700C00000808186FDF7CF8091CF
:10069000AF019091B001892B41F480917800909145
:1006A00079009093B0018093AF0180917800909190
:1006B00079009093AE018093AD018091AD0190914E
:1006C000AE012091AF013091B001821B930B8739AD
:1006D000910524F081E08093AB0110C08091AD01C1
:1006E0009091AE012091AF013091B001821B930B2C
:1006F0008A369F4F1CF481E08093AC018091780092
:10070000909179009093B0018093AF01FF91EF91A8
:100710009F918F913F912F910F900FBE0F901F903F
:1007200018958FEF8AB91BB89EEF97B918B884B99E
:1007300015B892E09093B00097E09093B100E0E795
:10074000F0E010829081926090838093B30084E8FF
:1007500080937A0010927C002A982B9A83EC99E07F
:100760000197F1F700C0000041DE83EC99E00197AA
:10077000F1F700C0000068E070E080EC92E1B0DCCE
:10078000789480EA91E04EDDC0E7D0E08091AB0143
:1007900081111ADF8091AC01811123DF8091AA01C0
:1007A0008823A1F388818D7F888328DF1092AA0196
:1007B000888182608883EACFA1E21A2EAA1BBB1B24
:1007C000FD010DC0AA1FBB1FEE1FFF1FA217B3071D
:1007D000E407F50720F0A21BB30BE40BF50B661F33
:1007E000771F881F991F1A9469F7609570958095F7
:1007F00090959B01AC01BD01CF010895F894FFCF06
:100800000100000D0A004163746976653F00526182
:100810007370692057616B652100526173706920A4
:10082000697320616C7265616479206163746976B3
:10083000652E0052617370692053687574646F7718
:100840006E2100526173706920697320616C72655A
:1008500061647920696E2068616C742E00436F6D4D
:100860006D616E643F00697200547970653F006E7F
:100870006563004461746120696E204E45432066C3
:100880006F726D617400437573746F6D6572206370
:100890006F64653F00446174613F0045786974008E
:0A08A00048656C6C6F204156520051
:00000001FF
