:100000003EC064C864C856C055C054C053C052C036
:1000100051C0F8C750C021C44DC04CC0AEC34AC087
:1000200049C048C020C27EC1A9C144C043C042C02B
:1000300041C040C0436F6D6D616E643F0043757396
:10004000746F6D657220636F64653F2842617365EC
:100050003A3136290043757272656E7420536574A7
:1000600074696E672069730053656E73697469768D
:1000700069747920416C69676E6D656E7400112436
:100080001FBECFEFD4E0DEBFCDBF11E0A0E0B1E0F6
:10009000E4EFF6E102C005900D92AA39B107D9F755
:1000A00024E0AAE9B1E001C01D92A93BB207E1F743
:1000B00044D81ECB1BC81F920F920FB60F9211246B
:1000C0002F938F939F93EF93FF938091AD018111B5
:1000D00020C081E08093AE01E1E8F0E0908180E40F
:1000E00089278083809186009091870010928500F7
:1000F00010928400009769F020910101E22FF0E056
:10010000EE0FFF1FE954FD4F918380832F5F2093F3
:100110000101FF91EF919F918F912F910F900FBE51
:100120000F901F9018959091AE012091AD01922BE8
:1001300009F055C092E094BD95BD97E497BD219A12
:1001400029988823A1F18091AE01811148C0E4E68D
:10015000F0E08081886080838081877F8083109237
:10016000850010928400E2E8F0E08081806880835E
:1001700010926F00E0E8F0E01082A1E8B0E01C927D
:1001800082E0808389E18C938AE190E090938700FC
:10019000809386008AE180938800808180688083D4
:1001A00087EA91E60197F1F700C000000895809179
:1001B000AD01811114C0109280008AE88093810003
:1001C0008FEF9FE1909389008093880082E2809373
:1001D0006F00E2E8F0E080818068808320980895D5
:1001E000FB01443068F05BEA459F512D1124569580
:1001F000952F990F950F491B8170511106C016C09C
:10020000411123C0208131811DC090E0682F6660BC
:10021000A081B181A95BBC4F6C93208131812F5F9C
:100220003F4F318320839F5F9513F2CF208131812F
:10023000440F842BD901A95BBC4F8C932F5F3F4F98
:1002400031832083822F932F08958170EFCFCF9336
:10025000DF93EB01882341F041E081E0C1DF43E01F
:10026000BE0180E0BDDF07C041E081E0B9DF41E0D1
:10027000BE0180E0B5DF88819981DF91CF9108953B
:10028000CF93DF939C01EB01BC0176956795CB0181
:10029000A0E0B0E0BC01CD016C5D7B408F4F9F4F73
:1002A00040E050E041D8215031093093C5002093FF
:1002B000C40088ED8093C100C530D10531F0289786
:1002C00031F486E08093C20002C01092C200DF9138
:1002D000CF9108959091AB018091AC01981758F49B
:1002E0009091AB01E92FF0E0E954FC4F80819F5FD2
:1002F0009093AB01089580E008952091AA01909118
:10030000A90181E0291380E008958091A901E82FD7
:10031000F0E0E954FE4F90819093C6008F5F809388
:10032000A90108951F920F920FB60F9211242F93D7
:100330003F934F935F936F937F938F939F93AF936D
:10034000BF93EF93FF93D9DF882331F0E1ECF0E026
:1003500080818F7D808301C0D8DFFF91EF91BF91B5
:10036000AF919F918F917F916F915F914F913F914D
:100370002F910F900FBE0F901F9018951895F8941D
:100380004091AA012091A9014F5F50E030E042174F
:100390005307B1F39091AA01E92FF0E0E954FE4F21
:1003A00080839F5F9093AA012091AA018091A90167
:1003B00030E090E001962817390729F4E1ECF0E0ED
:1003C00080818062808378940895CF93DF93EC01DD
:1003D000FC018491882339F090E0D1DF2196FE0161
:1003E00084918111F9CFDF91CF910895CF93DF935D
:1003F000EC018881882331F0219690E0C0DF89915B
:100400008111FBCFDF91CF91089584E091E0EEDF81
:100410000895DBDFFADF0895F8DF1092A801089550
:10042000E5DFF3DF08959093B6018093B501209145
:10043000A601222321F081E08093A701089526E000
:1004400031E0FC012083089581E08093A6010895A6
:10045000FBDF81E08093A8010895843219F481E0E4
:1004600080939F0108951F920F920FB60F9211244F
:100470001F932F933F934F935F936F937F938F932C
:100480009F93AF93BF93EF93FF93CF93DF93CDB73A
:10049000DEB7C154D109DEBFCDBF8091C6008983CC
:1004A0008981DBDF8091A8018823A1F189818830CF
:1004B00041F48091AC01E82FF0E081508093AC01D1
:1004C00007C08091AC01E82FF0E08F5F8093AC0112
:1004D0008981E954FC4F8083898190E050DF8981D4
:1004E0008D30C1F410E0F6DE882349F0E2E0F0E060
:1004F000EC0FFD1FE10FF11D80831F5FF4CF115042
:10050000E2E0F0E0EC0FFD1FE10FF11D1082CE01E3
:10051000029689DFCF5BDF4F0FB6F894DEBF0FBEC8
:10052000CDBFDF91CF91FF91EF91BF91AF919F919F
:100530008F917F916F915F914F913F912F911F917B
:100540000F900FBE0F901F901895F8941FBA92BD90
:1005500081BD60BDFA9AF99AF999FECF7894089511
:10056000F89492BD81BDF89AF999FECF789480B540
:100570000895811101C08FEF90E00DC0E7EAF1E628
:100580003197F1F700C000009F5F891720F41092A7
:10059000A60180E008952091A701222379F310920B
:1005A000A70181E00895CF93C62F3ADF51DF8C2F4A
:1005B000E0DFC82F31DF1092A601CC2329F0209173
:1005C000B5013091B60102C022E031E0822F932FB5
:1005D000CF910895CF93C62F1CDF3ADF8C2FC9DF50
:1005E000C82F1ADF1092A601CC2329F02091B50163
:1005F0003091B60102C022E031E0822F932FCF91DB
:10060000089540E0242F30E0FC01E20FF31F5081F9
:10061000511109C0FB01E20FF31F81E09081992382
:1006200059F080E00895FB01E20FF31F208152137F
:1006300002C04F5FE7CF80E008958BE18093810097
:1006400082E0809380001092820010926F00229AC4
:100650000895E4E6F0E080818F7D808381E063DDB2
:100660000895CF92DF92EF92FF920F931F93CF9353
:10067000DF9300D0CDB7DEB77C01D62E1A82198267
:1006800040E1BE016F5F7F4F81E0AADD48E0BE011F
:100690006F5F7F4F80E0A4DD0FE010E0C701002E08
:1006A00002C0959587950A94E2F7BE016F5F7F4F70
:1006B0008170CDDD0150110988F707E010E0ED2CC5
:1006C000F12CC701002E02C0959587950A94E2F798
:1006D000BE016F5F7F4F8170BADD0150110988F74D
:1006E00007E010E0E094F094C701002E02C0959559
:1006F00087950A94E2F7BE016F5F7F4F8170A7DD97
:100700000150110988F741E0BE016F5F7F4F81E022
:1007100067DD41E0BE016F5F7F4F80E061DD898171
:100720009A818036910564F4FC01E95BFC4F1082EC
:10073000019680369105C1F780E690E09A8389831F
:1007400088DF81E08093AD01EEE6F0E08081826099
:1007500080830F900F90DF91CF911F910F91FF90A9
:10076000EF90DF90CF900895E4E6F0E08081806222
:10077000808381E080939E0108951F920F920FB6AF
:100780000F9211242F933F934F935F936F937F9317
:100790008F939F93AF93BF93EF93FF9389E08093E1
:1007A0008800E091AF01F091B001E95BFC4F8081DE
:1007B00080FF07C0E0E8F0E08081806880835E9A77
:1007C00006C0E0E8F0E080818F7780835E98E0915A
:1007D000AF01F091B001E95BFC4F8081869597E411
:1007E000899F802D112487BD8091AF019091B00128
:1007F00001969093B0018093AF01E091AF01F09129
:10080000B001E95BFC4F8081811112C0E0E8F0E0AB
:1008100080818F778083EEE6F0E080818D7F80831A
:100820001092B0011092AF0129981092AD019CDF97
:10083000FF91EF91BF91AF919F918F917F916F91B8
:100840005F914F913F912F910F900FBE0F901F908E
:10085000189581E080939D0108951F920F920FB625
:100860000F9211242F933F934F935F936F937F9336
:100870008F939F93AF93BF93EF93FF938091AE01BC
:10088000882309F4A8C11092AE018091010181343E
:1008900008F4A1C1109201018091B9029091BA02AD
:1008A000893E93400CF497C18091B9029091BA02AD
:1008B0008A3B94400CF08FC18091BB029091BC02A6
:1008C0008B3E91400CF487C18091BB029091BC0299
:1008D000823692400CF07FC18091BD029091BE02A1
:1008E000C3970CF478C18091BD029091BE0280350F
:1008F0009105CCF070C1862F90E0FC01EE0FFF1F38
:10090000E954FD4F20813181233331050CF463C15B
:10091000FC01EE0FFF1FE954FD4F8081918180356E
:1009200091052CF058C17FE063E041E050E0862F54
:100930008F5F90E0FC01EE0FFF1FE954FD4F208117
:10094000318123333105F4F0FC01EE0FFF1FE95430
:10095000FD4F2081318120353105A4F42091B20171
:100960003091B301CA01072E02C0880F991F0A9463
:10097000E2F780959095822393239093B30180931F
:10098000B20125C0FC01EE0FFF1FE954FD4F20818D
:1009900031812F3B3105DCF0FC01EE0FFF1FE954E4
:1009A000FD4F80819181873D91058CF48091B2014A
:1009B0009091B3019A01072E02C0220F331F0A94AF
:1009C000E2F7822B932B9093B3018093B2016E5F79
:1009D0007150703108F48FCF862F90E0FC01EE0F3C
:1009E000FF1FE954FD4F20813181233331050CF481
:1009F000F2C0FC01EE0FFF1FE954FD4F8081918191
:100A000080359105CCF0E7C0862F90E0FC01EE0F19
:100A1000FF1FE954FD4F20813181233331050CF450
:100A2000DAC0FC01EE0FFF1FE954FD4F8081918178
:100A30008035910524F0CFC077E041E050E0862F6B
:100A40008F5F90E0FC01EE0FFF1FE954FD4F208106
:100A5000318123333105C4F0FC01EE0FFF1FE9544F
:100A6000FD4F208131812035310574F42091B10191
:100A7000CA01072E02C0880F991F0A94E2F78095D9
:100A800082238093B10120C0FC01EE0FFF1FE954C7
:100A9000FD4F208131812F3B3105B4F0FC01EE0F79
:100AA000FF1FE954FD4F80819181873D910564F4DA
:100AB0002091B101CA01072E02C0880F991F0A9424
:100AC000E2F7822B8093B1016E5F7150783008F4A9
:100AD0009BCF862F90E0FC01EE0FFF1FE954FD4FE6
:100AE00020813181233331050CF475C0FC01EE0FF8
:100AF000FF1FE954FD4F8081918180359105CCF035
:100B00006AC0862F90E0FC01EE0FFF1FE954FD4FF5
:100B100020813181233331050CF45DC0FC01EE0FDF
:100B2000FF1FE954FD4F80819181803591052CF0A4
:100B300052C077E0A0E041E050E0862F8F5F90E068
:100B4000FC01EE0FFF1FE954FD4F2081318123335B
:100B50003105A4F0FC01EE0FFF1FE954FD4F208189
:100B600031812035310554F4CA01072E02C0880FA7
:100B7000991F0A94E2F78095A8231CC0FC01EE0F90
:100B8000FF1FE954FD4F208131812F3B310594F047
:100B9000FC01EE0FFF1FE954FD4F80819181873DDD
:100BA000910544F4CA01072E02C0880F991F0A94C8
:100BB000E2F7A82B6E5F7150783008F4A2CF8091D5
:100BC000B101A095A81307C06091B1018091B20155
:100BD0009091B3013EDEFF91EF91BF91AF919F9154
:100BE0008F917F916F915F914F913F912F910F90D6
:100BF0000FBE0F901F9018950F931F93CF93DF9305
:100C00008C01EB018091AD01811138C016DD89E0C6
:100C10009DE3B80175D37093870060938600759546
:100C2000679570938B0060938A00109285001092F4
:100C3000840083EC99E00197F1F700C00000E0E840
:100C4000F0E0808180628083E3ECF9E03197F1F796
:100C500000C00000209769F0BE0180E090E0E9EF5D
:100C6000F0E03197F1F700C0000001968617970772
:100C7000B1F7E0E8F0E080818F7D8083DF91CF9154
:100C80001F910F910895CF93DF936AE087E091E081
:100C90008ADCEC01C5DB81E09881911101C080E024
:100CA000DF91CF910895EFDF811115C08AE091E0C7
:100CB000B7DB2C9A89EF90E00197F1F700C00000B4
:100CC0002C9866E470E080E793E096DF66E470E0DD
:100CD00080EE96E091DF1092A0010895D4DF882382
:100CE00069F08FE091E09CDB66E470E088EB91E0D6
:100CF00083DF66E470E08CED90E07EDF1092A1016E
:100D00000895CF92DF92EF92FF920F931F93CF93AC
:100D1000DF93CDB7DEB7C055D1090FB6F894DEBF6B
:100D20000FBECDBF64E684E390E054DC8C0178DB39
:100D300064E171E0C80165DC8823E9F164E687E1DC
:100D400091E031DC8C016DE171E05BDC882339F1ED
:100D500081E291E065DB64E68DE390E03BDCBC0181
:100D6000CE0181961CD464E68CE291E01CDCBC01CF
:100D7000CE01019614D440E150E0BE016F5B7F4F7D
:100D8000CE018196F3D26B017C0140E150E0BE01BF
:100D90006F5B7F4FCE010196E9D2C60162DC6BE347
:100DA00071E0C8012EDC882309F417C164E987ECDF
:100DB00091E257DC12C16DE371E0C80122DC8823A7
:100DC00009F44FC064E682E491E0EDDBBC01CE01A2
:100DD0008F5B9F4FE4D368E471E0CE018F5B9F4F40
:100DE00010DC882359F066E470E080E793E004DFCC
:100DF00066E470E080EE96E0FFDEEFC06AE471E04A
:100E0000CE018F5B9F4FFDDB882359F066E470E0D5
:100E100088EB91E0F1DE66E470E08CED90E0ECDED2
:100E2000DCC064E68CE491E0BEDBBC01CE018196BF
:100E3000B6D34AE050E0BE016F5F7F4FCE0181968E
:100E400095D26B017C014AE050E0BE016F5F7F4F9D
:100E5000CE018F5B9F4F8AD2DC01CB01B601CCDE85
:100E6000BCC061E571E0C801CCDB882309F46FC028
:100E700085E590E0CEDA8091B2019091B30140E136
:100E800050E0BE016F5F7F4F91D3CADA80919A0123
:100E900040E150E0BE016F5F7F4F90E087D3C0DA42
:100EA00087E591E0BDDA80919D018823E1F31092FE
:100EB0009D0189E691E0B4DA8091B2019091B3018D
:100EC00040E150E0BE016F5F7F4F70D3A9DA80919F
:100ED000B10140E150E0BE016F5F7F4F90E066D30B
:100EE0009FDA64E682E791E05EDB6FE771E089DB21
:100EF000882309F472C08091B2019091B30190935C
:100F00009C0180939B018091B10180939A01609133
:100F10009B0170919C0181E090E017DB60919B0147
:100F200070919C01672F770F770B82E090E00DDBCB
:100F300060919A0183E090E008DB87EA91E60197EF
:100F4000F1F700C0000081E891E06ADA46C069E884
:100F500071E0C80156DB882309F43FC088E690E0C1
:100F600058DA81E08093A60173DA8091A70181119C
:100F70002FC00AE710E00F2EF8E7EF2EF12CF02D2E
:100F80009FE3EDE0F3E09150E040F040E1F700C076
:100F90000000F801808180648083808186FF0AC020
:100FA00083EC99E00197F1F700C00000F80180811F
:100FB00086FDF6CFF701808191814AE050E0BE01C5
:100FC0006F5F7F4F12D32CDA8091A7018823C1F283
:100FD0001092A6011092A7011FDA8DE891E020DAA5
:100FE00080E0A1D8C05BDF4F0FB6F894DEBF0FBE24
:100FF000CDBFDF91CF911F910F91FF90EF90DF90C8
:10100000CF9008951F920F920FB60F9211242F9335
:101010003F938F939F93EF93FF9380910001982FBD
:101020009F5F90930001811146C0EAE7F0E0808164
:1010300080648083808186FF09C083EC99E00197FA
:10104000F1F700C00000808186FDF7CF8091A401F8
:101050009091A501892B41F48091780090917900BD
:101060009093A5018093A4018091780090917900DC
:101070009093A3018093A2018091A2019091A3017A
:101080002091A4013091A501821B930B893C91050D
:1010900024F081E08093A00106C088339F4F1CF4A8
:1010A00081E08093A10180917800909179009093E4
:1010B000A5018093A401FF91EF919F918F913F91A2
:1010C0002F910F900FBE0F901F90189518951F929B
:1010D0000F920FB60F9211248F9381E080939F019E
:1010E0008F910F900FBE0F901F9018951F920F9227
:1010F0000FB60F9211242F933F934F935F936F93EB
:101100007F938F939F93AF93BF93EF93FF9360ED84
:1011100077E088EB91E070DDFF91EF91BF91AF91A7
:101120009F918F917F916F915F914F913F912F91FF
:101130000F900FBE0F901F901895CF93DF9300D0A4
:1011400000D0CDB7DEB78FEF8AB91BB89EEF97B945
:1011500018B884B915B81092B00087E08093B10038
:10116000E0E7F0E010828081816080831092B2001D
:1011700084E880937A0010927C0083EC99E00197D8
:10118000F1F700C0000080E0CED7E3ECF9E0319742
:10119000F1F700C0000068E070E080EC92E170D8E8
:1011A000529853985B988DE08093690083E08DBBE3
:1011B00081E090E0D5D9182F82E090E0D1D9382F86
:1011C00020E0212B30939C0120939B0183E090E051
:1011D000C7D980939A01789482E991E021D983B7A5
:1011E000817F866083BFE4E6F0E080818068808351
:1011F00080818460808380818062808301EC10E044
:101200000F2EF0E7EF2EF12CF02DDD24D394F80112
:10121000808185FDFCCF8091AE018111FCCF809152
:10122000AD018111FCCF4B99D0929F018091A0011B
:10123000811139DD8091A101811150DD80919E01E4
:10124000882311F080E06FD780919D01882369F198
:1012500010929D012091B2013091B30180919B01C8
:1012600090919C012817390741F49091B101809128
:101270009A01981302C017DD18C086E991E0D0D812
:101280008091B2019091B30140E150E0BE016F5FE7
:101290007F4F8CD1C5D88091B10140E150E0BE01B3
:1012A0006F5F7F4F90E082D1BBD880919F018823F0
:1012B00069F0F70180818E7F80835F9A22DD109232
:1012C0009F01F7018081816080835F98F8018081B0
:1012D00085FDFCCF8091AE018111FCCF8091AD01E5
:1012E0008111FCCF89EF90E00197F1F700C0000079
:1012F00083B7816083BF889583B78E7F83BF87CF95
:10130000AA1BBB1B51E107C0AA1FBB1FA617B7072B
:1013100010F0A61BB70B881F991F5A95A9F7809547
:101320009095BC01CD010895A1E21A2EAA1BBB1B0A
:10133000FD010DC0AA1FBB1FEE1FFF1FA217B307A1
:10134000E407F50720F0A21BB30BE40BF50B661FB7
:10135000771F881F991F1A9469F76095709580957B
:1013600090959B01AC01BD01CF010895A0E0B0E0D4
:10137000EBEBF9E07CC15B01EA016115710519F045
:10138000FB0180839183209739F09E01225031091F
:101390002332310508F0E3C07C01F70191907F0111
:1013A0008F01892D90E0F3D0892BB9F7FDE29F12D0
:1013B00006C0F70191908F018824839407C0FBE257
:1013C0009F1203C0F70191908F01812C209709F49F
:1013D000D4C0C031D10581F4CCC0F80180818837F8
:1013E00019F0883509F0BFC0F80191800E5F1F4FDA
:1013F000F2E08F2AC0E1D0E0C830D105D9F024F462
:10140000C230D105F9F407C0CA30D10551F0C0315E
:10141000D105C1F424C0C12CD12CE12C40E4F42E20
:1014200023C0CAE0D0E03CECC32EDC2CEC2C3CE02A
:10143000F32E1AC0C8E0D0E0C12CD12CE12C20E161
:10144000F22E12C09E01442737FD4095542F60E0D4
:1014500070E080E090E868DF69017A0105C0C12C86
:10146000D12CE12C98E0F92E40E060E070E0CB0157
:101470002E01662457FC6094762CE92DE053EA3067
:1014800060F0292D21542A3110F4E75006C0292D8F
:1014900021562A3120F5E92DE7552E2F30E02C1763
:1014A0003D07ECF447FD17C0C616D706E806F90657
:1014B00078F09B01AC01C301B201BED06E0F711D6B
:1014C000811D911D61307105810520E8920710F0A2
:1014D0004FEF01C041E0F80191908F01CECFA114F0
:1014E000B10481F0442331F001501109F501118359
:1014F000008308C081FE1AC002501109F501118352
:10150000008314C047FF12C080FE05C060E070E099
:1015100080E090E804C06FEF7FEF8FEF9FE722E25B
:1015200030E03093B8042093B70416C080FE08C0A2
:1015300090958095709561957F4F8F4F9F4F0CC010
:1015400097FF0AC082E290E09093B8048093B704BA
:101550006FEF7FEF8FEF9FE78B019C0112C000E0E0
:1015600010E098010EC080E3982E209709F462CF16
:1015700043CFF0E39F1240CF30CF20E3921251CF00
:101580002CCFB801C901CDB7DEB7E0E18CC0911115
:1015900040C0803219F089508550D0F70895FB0182
:1015A000DC0101900D920020E1F70895FB019F01FD
:1015B000E8944230BCF04532ACF44A3029F497FB51
:1015C0001EF4909581959F4F642F772799DE805D5B
:1015D0008A330CF0895D8193CB010097A9F716F44B
:1015E0005DE251931082C90117C0FB019F01423097
:1015F0006CF045325CF4642F772782DE805D8A339D
:101600000CF0895D8193CB010097A9F71082C90185
:1016100003C0992788270895DC01FC01672F719189
:101620007723E1F7329704C07C916D9370836291C8
:10163000AE17BF07C8F30895DB018F939F930BD0BC
:10164000BF91AF91A29F800D911DA39F900DB29F5E
:10165000900D1124089540D0A59F900DB49F900D3A
:10166000A49F800D911D112408952F923F924F92B7
:101670005F926F927F928F929F92AF92BF92CF9222
:10168000DF92EF92FF920F931F93CF93DF93CDB72B
:10169000DEB7CA1BDB0B0FB6F894DEBF0FBECDBFA3
:1016A00009942A88398848885F846E847D848C8474
:1016B0009B84AA84B984C884DF80EE80FD800C817D
:1016C0001B81AA81B981CE0FD11D0FB6F894DEBF60
:1016D0000FBECDBFED010895A29FB001B39FC00121
:1016E000A39F01D0B29F700D811D1124911D0895FB
:0416F000F894FFCF9C
:1016F400FA0100000D0A00413F0057616B65004884
:10170400616C7400697200547970653F006E6563A2
:10171400004E454320666F726D61740044617461CC
:101724003F28426173653A313629003000626565AD
:101734007000467265713F00410042004475723F7B
:1017440000706F7765720057616974696E6720660F
:101754006F722049522E2E2E00526563656976659C
:1017640064004170706C793F2028792F4E290079EC
:10177400005772697474656E006364730045786918
:0A1784007400415652004952000063
:00000001FF
